:10000E004350553A535443313243354136305332CF
:10001E0000464C4153483A36304B42005352414D04
:10002E003A313238304279746500453250524F4D74
:10003E003A20314B4200000000000000000000009A
:10004E0000000000000000000000000000000000A2
:10005E00000000000000000202FAFAAAAAFFFFAA9E
:10006E00AAFAFA020200004272723A7A424B5B52CC
:10007E00626213776600203C1CFFFFB0B424243F5D
:10008E003FE4E4242420020203FFFF0001051D5972
:10009E00C1FF7F010101000000F8F8484C4F4B4AA8
:1000AE004848F8F80000000000FFFF444444444470
:1000BE004444FFFF0000202424E4E42424243010D0
:1000CE00FFFF10F0F000081C1F0B0C0D4F6E341CC0
:1000DE000F23607F3F0080C060F8FF070200FFFF24
:1000EE00E0703C1C08000000007F7F0406033F7F89
:1000FE004040407878000000000000000000000042
:10010E0000000000000000000000000000000000E1
:10011E0000000000000000000000000000000000D1
:10012E0000000000000000000000000000000000C1
:10013E0000000000000010218670007E4A4A4A4AE4
:10014E004A7E0000000002FE01407F41417F414196
:10015E007F41417F40000000FC042424FCA5A6A49E
:10016E00FC242424040080601F808042462A121240
:10017E002A2642C04000080808FF884800984828F0
:10018E000A2C48D808000242817F000040424242B9
:10019E007E424242400000504F4A48FF48484800C5
:1001AE00FC0000FF000000003F0101FF21613F0045
:1001BE000F40807F000000908CA4A4A4A5A6A4A448
:1001CE00A4A4948C04000080402018070000003F77
:1001DE00404040700000000474D4FFD47404100C2E
:1001EE00B744B40C04000042437A4342437E4B4B67
:1001FE004A4A42430100080808080808F94A4C48D0
:10020E0048C808080800404020100C030000204099
:10021E00403F0000000000202C246474ADA6E4349E
:10022E0024242C2400000024242515150DFE040D75
:10023E00171424642400000000F848484C4B4A4828
:10024E004848F8000000000000FF44444444444481
:10025E004444FF000000202424E424242420101011
:10026E00FF1010F00000081C0B080C054E24100C9B
:10027E000320403F0000080808FF884800984828DF
:10028E000A2C48D808000242817F000040424242B8
:10029E007E424242400000504F4A48FF48484800C4
:1002AE00FC0000FF000000003F0101FF21613F0044
:1002BE000F40807F00000807FAAAAEAAAAA8ACAB2E
:1002CE00AAFE0A02020008088B6A1E0A0A0A0AFE21
:1002DE000A0B08080800106001C63000101010FF4D
:1002EE001010101000000404FE01004161514D4336
:1002FE00414151E101004041CE04008040BE828266
:10030E0082BEC040400000007F20908040432C10F1
:10031E00102C43C0400020212EE40000202020207D
:10032E00FF20202020000000007F20100800000089
:10033E00FF00000000000000F848484848FF484809
:10034E004848F800000000000F040404043F444431
:10035E0044444F40700000000202020202E2120A00
:10036E00060200800000010101010141817F0101AF
:10037E000101010101000020202222E2222222E2BC
:10038E00222222202000004020100C030000003FFB
:10039E004040404070004020F80F82601E1410FF55
:1003AE001010101000000000FF000101010101FFFC
:1003BE00010101010100000000007E484848484844
:1003CE00484848CC0800000404040404040404242F
:1003DE004644201F0000849494FF94948024242487
:1003EE00FC1213120000201806FF021C0A02020261
:1003FE003F41414171001010D0FE5090001010107E
:10040E00D0FE10101000080601FF00011008044372
:10041E00807F000000009088A7A2A6BAA2F8A7A22B
:10042E00A6BAA282800000040404040C340444849E
:10043E007F04040400000000000000000000002FF4
:10044E00000000000700070000147F147F14002432
:10045E002A7F2A120062640813230036495522505F
:10046E0000000503000000001C2241000000412294
:10047E001C000014083E08140008083E080800007E
:10048E0000A0600000080808080800006060000076
:10049E00002010080402003E5149453E0000427FF4
:1004AE004000004261514946002141454B31001840
:1004BE0014127F10002745454539003C4A49493002
:1004CE0000017109050300364949493600064949BC
:1004DE00291E0000363600000000563600000008C7
:1004EE0014224100001414141414000041221408A4
:1004FE0000020151090600324959513E007C121189
:10050E00127C007F49494936003E41414122007F1D
:10051E004141221C007F49494941007F09090901D7
:10052E00003E4149497A007F0808087F0000417F5C
:10053E004100002040413F01007F08142241007F0E
:10054E0040404040007F020C027F007F0408107F75
:10055E00003E4141413E007F09090906003E4151DE
:10056E00215E007F0919294600464949493100019B
:10057E00017F0101003F4040403F001F2040201FEF
:10058E00003F4038403F00631408146300070870B2
:10059E00080700615149454300007F414100005565
:1005AE002A552A55000041417F0000040201020431
:1005BE00004040404040000001020400002054541E
:1005CE005478007F4844443800384444442000386E
:1005DE004444487F00385454541800087E090102E0
:1005EE000018A4A4A47C007F080404780000447DB5
:1005FE004000004080847D00007F102844000000F1
:10060E00417F4000007C04180478007C08040478C4
:10061E0000384444443800FC2424241800182424B0
:10062E0018FC007C080404080048545454200004AC
:10063E003F444020003C4040207C001C2040201CB9
:10064E00003C4030403C004428102844001CA0A030
:10065E00A07C004464544C4414141414141400006C
:10066E00000000000000000000000000000000007C
:10067E0000F8000000000000003330000000001001
:10068E000C06100C0600000000000000000040C028
:10069E007840C0784000043F04043F04040000701A
:1006AE0088FC08300000001820FF211E0000F00812
:1006BE00F000E018000000211C031E211E0000F0B7
:1006CE000888700000001E212324192721101016FF
:1006DE000E000000000000000000000000000000FE
:1006EE0000E018040200000000071820400000027D
:1006FE000418E000000000402018070000004040F1
:10070E0080F0804040000202010F01020200000052
:10071E0000F0000000000101011F010101000000B6
:10072E0000000000000080B070000000000000001B
:10073E0000000000000000010101010101010000A4
:10074E00000000000000003030000000000000003B
:10075E00000080601804006018060100000000E030
:10076E0010080810E000000F102020100F000010DD
:10077E0010F8000000000020203F20200000007034
:10078E00080808887000003028242221300000302C
:10079E000888884830000018202020110E00000024
:1007AE00C02010F8000000070424243F240000F8A5
:1007BE000888880808000019212020110E0000E08A
:1007CE00108888180000000F112020110E0000382C
:1007DE000808C83808000000003F00000000007044
:1007EE00880808887000001C222121221C0000E0CD
:1007FE0010080810E0000000312222110F00000046
:10080E0000C0C000000000000030300000000000FA
:10081E00008000000000000080600000000000006A
:10082E008040201008000001020408102000404003
:10083E004040404040000404040404040400000846
:10084E0010204080000000201008040201000070FB
:10085E0048080808F0000000003036010000C030E3
:10086E00C828E810E0000718272423140B00000006
:10087E00C038E0000000203C23020227382008F890
:10088E00888888700000203F202020110E00C03084
:10089E00080808083800071820202010080008F85B
:1008AE0008080810E000203F202020100F0008F854
:1008BE008888E8081000203F20202320180008F820
:1008CE008888E8081000203F200003000000C03098
:1008DE0008080838000007182020221E020008F819
:1008EE0008000008F808203F210101213F200008E0
:1008FE0008F8080800000020203F2020000000001B
:10090E000808F8080800C08080807F00000008F802
:10091E0088C028180800203F20012638200008F83B
:10092E00080000000000203F20202020300008F8A2
:10093E00F800F8F80800203F003F003F200008F8BC
:10094E0030C00008F808203F200007183F00E010D4
:10095E0008080810E0000F10202020100F0008F8E3
:10096E0008080808F000203F210101010000E010F6
:10097E0008080810E0000F18242438504F0008F81B
:10098E00888888887000203F2000030C302000707B
:10099E008808080838000038202121221C00180879
:1009AE0008F8080818000000203F2000000008F892
:1009BE0008000008F808001F202020201F000878DB
:1009CE00880000C83808000007380E010000F8083B
:1009DE0000F80008F800033C0700073C0300081865
:1009EE0068808068180820302C03032C30200838CB
:1009FE00C800C83808000000203F20000000100882
:100A0E000808C838080020382621202018000000C9
:100A1E0000FE020202000000007F40404000000C79
:100A2E0030C000000000000000010638C0000002C7
:100A3E000202FE000000004040407F000000000067
:100A4E00040202020400000000000000000000008A
:100A5E000000000000008080808080808080000286
:100A6E000204000000000000000000000000000072
:100A7E008080808000000019242222223F2008F866
:100A8E00008080000000003F112020110E000000A9
:100A9E00008080800000000E112020201100000038
:100AAE0000808088F800000E112020103F200000EA
:100ABE00808080800000001F2222222213000080EE
:100ACE0080F0888888180020203F20200000000039
:100ADE00808080808000006B94949493600008F86E
:100AEE00008080800000203F210000203F200080F9
:100AFE009898000000000020203F202000000000F9
:100B0E0000809898000000C08080807F000008F868
:100B1E00000080808000203F24022D30200000083D
:100B2E0008F8000000000020203F202000008080F8
:100B3E00808080808000203F20003F20003F80800A
:100B4E00008080800000203F210000203F20000018
:100B5E00808080800000001F202020201F008080C9
:100B6E0000808000000080FFA12020110E000000F8
:100B7E00008080808000000E112020A0FF808080E9
:100B8E0080008080800020203F2120000100000096
:100B9E00808080808000003324242424190000806B
:100BAE0080E0808000000000001F20200000808078
:100BBE00000000808000001F202020103F20808039
:100BCE0080000080808000010E30080601008080C9
:100BDE000080008080800F300C030C300F000080EE
:100BEE008000808080000020312E0E312000808019
:100BFE0080000080808080818E7018060100008049
:100C0E008080808080000021302C22213000000066
:100C1E000000807C020200000000003F4040000007
:100C2E000000FF00000000000000FF0000000002B6
:100C3E00027C800000000040403F000000000006E3
:100C4E000101020204040000000000000000000385
:100C5E00050911FF118905C300E000F000F800003E
:100C6E0000000000004428FF11AA4400000000000C
:100C7E000000000000000000000000000000000066
:100C8E000000000000000000000000000000000056
:100C9E000000000000000000000000000000000046
:100CAE00000000000000000083013844829292741C
:100CBE000183000000000000007C44C7017D7D7DA3
:100CCE007D017D7D7D7D017D7D7D7D01FF000000AF
:100CDE000000000100010001000100010001000000
:100CEE0000000000000000010100000000000000F4
:100CFE0000000000000000000000000000000000E6
:100D0E0000000000000000000000000000000000D5
:100D1E0000000000000000000000000000000000C5
:100D2E0000000000000000000101000000000000B3
:100D3E00010100000000000000000001010101019E
:100D4E000101010101010101010101010100000088
:100D5E0000000000000000404040404000006D6D6B
:100D6E006D6D6D000060606060600000404040404E
:100D7E004000000000000000000000000000000025
:100D8E000000000000000000000000000000000055
:100D9E000000000000000000000000000000000045
:100DAE000000000000000000000000000000000035
:100DBE000000000000000000000000000000000025
:100DCE000000000000000000000000000000000015
:100DDE0000000000000000DBDBDBDBDB0000DBDB08
:100DEE00DBDBDB0000DBDBDBDBDB0000DBDBDBDBB1
:100DFE00DB0000DADADADADA0000D8D8D8D8D80090
:100E0E0000C0C0C0C0C00000C0C0C0C0C00000C094
:100E1E00C0C0C0C00000C0C0C0C0C0000080808084
:100E2E0080800000000000000000000000000000B4
:100E3E0000000000000000000000000000000000A4
:100E4E000000000000000000000000000000000094
:100E5E00000000000000000606060606000006065A
:100E6E00060606000006060606060000060606062C
:100E7E00060000060606E666200006068606060042
:100E8E000006060606860000060606060600008612
:100E9E008686868680808686068686C0C0868686FC
:100EAE000606D0307606060606000006060606067C
:100EBE0000000606060606000006060606060000E8
:100ECE0006060606060000000000000000000000F6
:100EDE000000000000000000000000000000000004
:100EEE0000000000000000000000000000000000F4
:100EFE000000000000000000601C00FE0001020067
:100F0E00C41820029E63B20E00FF8181FF00008094
:100F1E0040300F00000000FF0023EAAABFAAEA0338
:100F2E003F00FF0000000000000000000000000075
:100F3E0000000000000000000000000000000000A3
:100F4E000000000000000000000000000000000093
:100F5E000080808000000000008080800000000083
:100F6E000000000000000000000000000000000073
:100F7E000000000000000E0C08000001010101013C
:100F8E0000000001000000010081808081808180CE
:100F9E0080808001010101000000010000000100BD
:100FAE000101090C0E00000000000000000000000E
:100FBE00000000000000C0C0C0C0C0C0C0C0C0C0A3
:100FCE00C0C0C0C0C0C0C0C0C0C0C0C0C000001E35
:100FDE0021404050215E001E21404050215E000005
:100FEE0000000000000000000000000000000000F3
:100FFE0000000000000000000000000000000000E3
:10100E00000000000000000000FFFFC1C1FFFFC193
:10101E00C1FFFF0000000000000000000000000003
:10102E0000000000000000000000000000000000B2
:10103E00000000000000FFFF80FCF3EFF3FC80FFD8
:10104E0080EEEEEEF5FBFF9CBEB6B688FF00000309
:10105E00050911FF118905C300E000F000F800003A
:10106E0000000000004428FF11AA44000000000008
:10107E000000000000000000000000000000000062
:10108E000000000000000000000000000000000052
:10109E000000000000000000000000000000000042
:1010AE000000000000000000830138448292927418
:1010BE000183000000000000007C44FF017D7D7D67
:1010CE007D017D7D7D7D017D7D7D7D01FF000000AB
:1010DE0000000001000100010001000100010000FC
:1010EE0000000000000000010100000000000000F0
:1010FE0000000000000000000000000000000000E2
:10110E0000000000000000000000000000000000D1
:10111E0000000000000000000000000000000000C1
:10112E0000000000000000000101000000000000AF
:10113E00010100000000000000000001010101019A
:10114E000101010101010101010101010100000084
:10115E000000000000000000000000000000000081
:10116E0000000000000000000000000000F8080869
:10117E00080808080800F818608000000080601851
:10118E00F80000002020F8000000000000E0100829
:10119E0008080810E00000002020F8000000000001
:1011AE000000000000000008080808088868180001
:1011BE000000000000000000000000000000000021
:1011CE000000000000000000000000000000000011
:1011DE000000000000000000000000000000000001
:1011EE00000000000000000000000000007F010170
:1011FE000101010100007F00000106180601000038
:10120E007F00000040407F4040000000001F204053
:10121E00404040201F00000040407F404000000042
:10122E0000006000000000000060180601000000D1
:10123E0000000000000000000000000000000000A0
:10124E000000000000000000000000000000000090
:10125E000000000000000000000000000000000080
:10126E000000000000000000000000000000000070
:10127E0000000040202020C00000E0202020E000E0
:10128E00000040E00000000060202020E000000090
:10129E000000E0202020E000000000004020202080
:1012AE00C0000040202020C0000000000000000010
:1012BE000000000000000000000000000000000020
:1012CE000000000000000000000000000000000010
:1012DE000000000000000000000000000000000000
:1012EE0000000000000000000000000000000000F0
:1012FE000000000C0A0A090C00000F0808080F0075
:10130E000000080F080000000C0809090E00000C70
:10131E0000000F0909090F00000C00000C0A0A0951
:10132E000C00000C0A0A090C00000000000000006E
:10133E00000000000000000000000000000000009F
:10134E00000000000000000000000000000000008F
:10135E00000000000000000000000000000000007F
:10136E00000000000000000000000000000000006F
:10137E00000000000000000000000000000000005F
:10138E00000000000000000000008080808080804F
:10139E00808000000000000000000000000000003F
:1013AE00000000000000000000000000000000002F
:1013BE00000000000000000000000000000000001F
:1013CE000000000000000000000000000000007F90
:1013DE00030C300C037F00003854545800007C047A
:1013EE00047800003C40407C00000000000000003B
:1013FE0000000000000000000000000000000000DF
:10140E0000000000000000000000FFAAAAAA2808A1
:10141E0000FF0000000000000000000000000000BF
:10142E0000000000000000000000000000000000AE
:10143E00000000000000007F030C300C037F000052
:0E144E00264949493200007F020408107F0041
:082AD0007F0C7EA8DEFEDFFC96
:012AD80022DB
:102A3600AD07AC06ED1DAE0470011C4E6005122AF2
:042A4600D080F12229
:092AD900D2A6D2A5C2A5C2A62214
:092AE200C2A6C2A5D2A6D2A5220B
:07283C00AD07122AD97F78D5
:10284300E4FEEF30E704D2A58002C2A5D2A6C2A659
:0E285300EF25E0FF0EBE08EAD2A5D2A6C2A66F
:012861002254
:1027960075F010A42CF582E435F0F583E582246CFF
:0B27A600F582E5833406F583E493FF21
:1027B10012283C7F40122843AF05122843022AE227
:102A990012283CE4FF122843AF05122843022AE218
:10291500AC07ED24B0FF122A99EC54F0C4540F44CF
:0E29250010FF122A99EC540F4401FF022A9968
:02288800AC079B
:10288A00E4FBEB24B0FF122A997F01122A997F10E8
:10289A00122A99E4FAAF041227B10ABA80F70BBBDD
:0228AA0008E044
:0128AC002209
:101F62007FAE122A99E4FF122A997F10122A997FD2
:101F720040122A997F81122A997FCF122A997FA132
:101F8200122A997FC8122A997FA6122A997FA8122B
:101F92002A997F3F122A997FD3122A99E4FF122AA3
:101FA200997FD5122A997F80122A997FD9122A996C
:101FB2007FF1122A997FDA122A997F12122A997FC7
:101FC200DB122A997F40122A997F20122A997F02D6
:101FD200122A997F8D122A997F14122A997FA412AC
:101FE2002A997FA6122A997FAF122A99E4FF122812
:101FF20088E4FDFF1229157BFF7A00790EE4FDFCCF
:10200200FF12235D7A00791F7D021223577A00792D
:102012002A7D041223577BFF7A0079387D0612232A
:0D202200597F207E03122A36E4FF02288831
:062513008C428D43AA0773
:10251900E4FCF544EB24E0F9EAD3947E400AE4FABA
:102529000543E54370020542AF02AD43122915E4A4
:10253900FCE91227960CBC08F8AF02E54304FD122A
:102549002915E4FC75F010E9A42CF582E435F0F5C1
:1025590083E5822474F582E58334061227AC0CBC2A
:0225690008E286
:01256B00224D
:0826AC008B42AA078D828C838A
:1026B400E4FCF543EAD3947E4003E4FAA3AF02AD0D
:1026C40082122915E4FCE4FF1227B10CBC08F7AF11
:1026D40002AE82EE04FD122915E4FCE4FF1227B1D8
:0426E4000CBC08F72B
:0126E80022CF
:062357007BFF7C00E4FFA7
:0C235D008F338C348D358B368A378938ED
:10236900E4F539FCF53AAB36AA37A938853A8275CE
:102379008300121745605D24E0F539E533D394787D
:10238900400BE4F5330535E53570020534AD35AF5D
:1023990033122915E4FCE5391227960CBC08F7E538
:1023A9003504FDAF33122915E4FC75F010E539A4A5
:1023B9002CF582E435F0F583E5822474F582E58312
:1023C90034061227AC0CBC08E174082533F5330533
:0423D9003A02236F32
:0123DD0022DD
:0C20EF008F2F8C308D318B328A33893476
:1020FB00E4F535FCF536AB32AA33A9348536827557
:10210B008300121745700302219424E0F535E52F67
:10211B00D39478400BE4F52F0531E531700205308F
:10212B00AD31AF2F122915E4FC75F010E535A42C59
:10213B00F582E435F0F583E582246CF582E5833492
:10214B0006F583E493F4FF1227B10CBC08DBE531F1
:10215B0004FDAF2F122915E4FC75F010E535A42C06
:10216B00F582E435F0F583E5822474F582E583345A
:10217B0006F583E493F4FF1227B10CBC08DB74085B
:09218B00252FF52F053602210174
:012194002228
:082235008F338D348A358B369E
:10223D00753903753AE8E4F53B85333C85343D85C6
:10224D00353E85363F853940853A41F538AC39AD57
:10225D003AAE35AF361217A6EF4E6003753B01E56A
:10226D003B601FEF2430FBE534FD7C00AF331225BE
:10227D0013AE35AF36AC39AD3A1217A68C358D3657
:10228D00800CE534FD7C00E4FBAF331226AC740802
:10229D002533F533AE39AF3A7C007D0A1217A68E81
:1022AD00398F3A0538E538C3940440A1E537B401B8
:0D22BD000CE534FD7C007B25AF33122513AA
:0122CA0022F1
:10244A00E4FBFAF52FF530EF24FE60101460141443
:10245A0060182403701FE4F9F5308019E4F9753027
:10246A0002800CE4F97530048005E4F9753006FF42
:10247A00AD30122915E9C39480502DAF01AD301249
:10248A002915E4FBE4FF1227B10BBB08F7AF01E5FE
:10249A003004FD122915E4FBE4FF1227B10BBB0837
:0824AA00F7740829F90A80CD3E
:0124B2002207
:10293300EF4488F5BC000000000000E5BC30E4FB78
:0C29430053BCEFAFBDEF70027F017E00BF
:01294F002265
:0F2AA900759DFFE4F5BD75BC807F02FE022950CC
:10295000EF1FAA0670011E4A60107C137D88ED1DD2
:0A296000AA0470011C4A60E880F42C
:01296A00224A
:0A1A0E008C488D498B458A468947B4
:101A18001217FBFDACF0E41216728F4D8E4C8D4BF5
:101A28008C4AAB45AA46A9471217FBFDACF0E41255
:101A380016728F518E508D4F8C4EE4F555F554F536
:101A480053F552F556C3E5569549E49548400302C7
:101A58001B49AB55AA54A953A852C000C001C002E3
:101A6800C003AB45AA46A94775F002E556A4F5821E
:101A780085F083121826FDACF0E4121672D003D05C
:101A880002D001D0001214638F558E548D538C529E
:101A9800AB45AA46A94775F002E556A4F58285F03C
:101AA80083121826FDACF0E4121672AB4DAA4CA9AD
:101AB8004BA84A1215F4501DAB45AA46A94775F024
:101AC80002E556A4F58285F083121826FDACF0E4F1
:101AD8001216728008AF4DAE4CAD4BAC4A8F4D8E8E
:101AE8004C8D4B8C4AAB45AA46A94775F002E55682
:101AF800A4F58285F083121826FDACF0E412167264
:101B0800AB51AA50A94FA84E1215F4601F401DAB47
:101B180045AA46A94775F002E556A4F58285F083E3
:101B2800121826FDACF0E41216728008AF51AE50C0
:101B3800AD4FAC4E8F518E508D4F8C4E0556021ABC
:101B48004DAB4DAA4CA94BA84AAF55AE54AD53ACBA
:101B58005212145FAB51AA50A94FA84E12145FC07D
:101B680004C005C006C007E54924FEFDE54834FF6A
:101B7800FCE4121672A804A905AA06AB07D007D080
:0B1B880006D005D0041215571216AB52
:011B9300222F
:102A860053877F759850438E04759CD9438E0143B6
:032A96008E10227D
:0A256C000163000162010264000532
:1028AD00122A86121F62122AA9122B09122A077DDB
:1028BD00017F091228147B007A00797012266212AA
:0428CD00202F80FB3D
:10202F00E4F52C1228628F2CE52C14603824FE6006
:10203F001614602224027040E56375F008A42496FC
:10204F00F582E43421802BE56375F008A42497F51D
:10205F0082E43421801CE56375F008A42499F5828D
:10206F00E43421800DE56375F008A42498F582E42B
:10207F003421F583E493F563E56365626029E563D5
:10208F0075F008A4249AF582E43421F583E493FBD8
:10209F00740193FA740293F98B668A67F568856306
:1020AF006212186C022032E5636003022032E5638E
:1020BF0065626003022032E56375F008A4249AF587
:1020CF0082E43421F583E493FB740193FA74029351
:1020DF00F98B668A67F56885636212186C02203285
:10257600202408010000000000FF00030100000005
:102586000000FF2AF4010000000000FF2AFA010003
:0725960000000000FF2B0014
:06000300E5B05404FF22E9
:062AF400E5B05408FF22CA
:062AFA00E5B05410FF22BC
:062B0000E5B05420FF22A5
:1025C300E4F534E53475F009A42408F8E66037E54A
:1025D3003475F009A4240EF808E6FA08E6F912188F
:1025E3006CE53475F009A4240BF8E6B5070DE53462
:1025F30075F009A4240AF87601800BE53475F00917
:0F260300A4240AF8E4F60534E534C3940440B483
:0126120022A5
:101E79001225C3E4F533E53375F009A4240CF8E61B
:101E890014602924FD606724046003021F55E533AB
:101E990075F009A4240AF8E6B4010EE53375F009D2
:101EA900A4240CF87601021F4A021F4AE53375F093
:101EB90009A4240AF8E6B40120E53375F009A4243D
:101EC9000CF87604E53375F009A4240DF87604E5D9
:101ED9003375F009A424098070E53375F009A42449
:101EE9000CF8E4F6E53375F009A4240D805BE533BD
:101EF90075F009A4240AF8E6FF64016015E5337555
:101F0900F009A4240CF8E4F6E53375F009A4240DCE
:101F19008037EF6401702AE53375F009A4240EF8BF
:101F290008E6FA08E6F912186CEF60EBE53375F08C
:101F390009A4240CF8E4F6E53375F009A4240D800E
:101F490008E53375F009A4240DF8E4F60533E53303
:081F5900C394045003021E7F33
:011F6100225D
:10286200121E79E50DB404037F0122E516B40403B8
:102872007F0222E51FB404037F0322E528B4040388
:062882007F04227F00220A
:0D2AB800E4F5C7F5C5F5C675C380F5C42269
:10296B00C2AF75C78175C5018FC48EC375C65A7545
:0A297B00C6A500AFC2122AB8D2AF01
:01298500222F
:1029BC00C2AF75C78175C5028FC48EC38DC275C673
:0A29CC005A75C6A500D2AF022AB862
:102A4A0075C78175C5038FC48EC375C65A75C6A569
:042A5A0000022AB894
:102A1F007F647E0012296BEF1217727F6512296B8C
:072A2F00900001EF02178483
:102986007F0A7E00122A4A12172CFD7F641229BC88
:0B299600900001121745FD0F0229BC44
:102662008B2C8A2D892E7F587E0212296BEF645A99
:10267200602F7F0A7E00122A4A7F587E02122A4A5F
:102682007D5A1229BCAB2CAA2DA92E740A121772DC
:10269200AB2CAA2DA92E90000174031217841229C3
:0A26A20086AB2CAA2DA92E022A1FD8
:03259D00017201C7
:032B0600000022AA
:0A2AC50000007F0C7EA8DEFEDFFC9F
:012ACF0022E4
:0B29A1007E001229ACC2A07F057E0062
:1029AC00EF1FAC0670011E4C6005122B0680F12245
:0429EF007F027E00E5
:1029F300AD07AC06ED1DAE0470011C4E6005122A36
:042A0300C580F12277
:1029D600E572B40109D2A01229A8D2A18007D2A219
:0929E6001229A8D2A31229A8228B
:1028D100E572B4010FD2A1D2A01229A8C2A1122976
:1028E100A8C2A022D2A3D2A21229A8C2A31229A8A7
:0328F100C2A2225E
:1028F400E572B4010DC2A0C2A11229A8D2A0D2A12E
:10290400800BC2A2C2A31229A8D2A2D2A31229A8C0
:0129140022A0
:0826E9001228D17FA41224B3D2
:1026F100E572B40117D2A01229EF30A10BE535C361
:1027010094FA5004053580F2C2A08015D2A2122994
:10271100EF30A30BE535C394FA5004053580F2C2BE
:04272100A21229EFE8
:012725002291
:0224B300AB0775
:1024B500E57264017026FD1229A6EB30E704D2A16E
:1024C5008002C2A11229A8D2A0EB25E0FB7F0A1247
:1024D50029A10DBD08E1D2A1D2A0802EE4FDC2A2A2
:1024E5001229A8EB30E704D2A38002C2A31229A8BF
:1024F500D2A2EB25E0FB7F0A7E001229ACC2A21214
:0D25050029A80DBD08D8D2A3D2A21229A882
:0125120022A6
:10261300E4FBE57264017020D2A1FD1229A6D2A0C9
:102623001229A8EB25E0FBA2A1E43342037F0512A4
:1026330029A10DBD08E58024D2A3E4FDC2A212297D
:10264300A8D2A21229A8EB25E0FBA2A3E4334203FC
:0E2653001229A8C2A21229A80DBD08E0AF03EB
:012661002256
:032B09000229D6C8
:10281400AA05A9071226E9AF011224B31226F17FF3
:102824001E7E001229ACAF021224B31226F1122824
:08283400F47F0A7E000229F383
:0227C100AA0765
:1027C3001226E9AF021224B31226F17F1E7E0012F5
:1027D30029AC1228D17FA51224B31226F112261395
:0727E300AD071228F4AF0559
:0127EA0022CC
:02272600A90701
:10272800E4F533F534E970057572018006B90123C3
:102738007572027F041227C17533008F34E5347532
:102748003400F5337F051227C1EF2534F534E4351D
:0727580033F533AE33AF345B
:01275F002257
:1027EB00D3EF9DEE9C400A8E838F82AA04AB0580AB
:1027FB00088C838D82AA06AB07C3E5829BFFE5831A
:08280B009AFE4F7003FE7F01ED
:0128130022A2
:1025A000015D00015800016000015C00015700015D
:0B25B0005B00015A00015F00015900B0
:102A0700538E7F5389F0758AB0758C3CC28DE4F57F
:082A17005DD2A9D2AFD28C22DE
:03000B0002276069
:10276000C0E0C0D0055DE55D64647025F55DE55BA6
:102770007003755B01E557B40102055CE559B401CE
:1027800002055FE560C39405500405608003755839
:0627900001D0D0D0E032C0
:102195000000000000FF18720102020300FF1B94FB
:1021A5000201010400FF00090303030001FF1C975E
:1021B5000404040002FF1D8A000000000000000066
:1021C500000000000000000000000000000000000A
:1021D50000000000000000000000000000000000FA
:1021E50000000000000000000000000000000000EA
:1021F50000000000000000000000000000000000DA
:1022050000000000000000000000000000000000C9
:1022150000000000000000000000000000000000B9
:1022250000000000000000000000000000000000A9
:1023DE0050726573733A0044697374616E3A0049C2
:1023EE0032433A004144433A00312E5365745072E1
:1023FE006573734C696D697400322E53657444694C
:10240E007374616E4C696D697400656E74657200EB
:10241E006573630053657474696E670050726573FB
:10242E00737572653A006F6B0053617665204F4B82
:0C243E00210044697374616E63653A000C
:0725BB00026E0000016D003B
:082AEB007F0C7EA8DEFEDFFC7B
:012AF30022C0
:102A5E00AD07AC06ED1DAE0470011C4E6005122ACA
:042A6E00EB80F122E6
:102A7200E4FF122862BF0109756301E4F5627F0178
:032A8200227F00B0
:012A8500222E
:10187200E4FF1228887BFF7A2379DEE4FDFCFF1265
:10188200235D7BFF7A2379E57D027C00E4FF12234E
:101892005D7BFF7A2379ED7D047C00E4FF12235DFA
:1018A2007BFF7A2379F27D067C00E4FF12235D7BC5
:1018B200007A007970122A1FE570FB7A00753701F1
:1018C200E4FD7F28122235E571FB7A00E4F5377DCD
:1018D200027F28021A07122A72EF6003021A0DE42D
:1018E200FF1227268E2D8F2E7F011227268E2F8FF5
:1018F20030AD30AC2FAF2EAE2D1227EB8E318F32A2
:10190200D3E5329571E53194004013755701E55CDA
:10191200D3940A400ED2A4122AEBC2A48000E4F5AA
:1019220057F55CE55B640160030219E0056FE56F42
:101932007002056EE4FF1229338F5E7F0112293394
:101942008F61E55EFB7A00E4F5377D067F1E122289
:1019520035E561FB7A00E4F5377D067F50122235CA
:10196200AF5E7E00AD617C001227EB8E6B8F6C75D3
:101972003701AB6CAA6BE4FD7F50122235E55EC3E2
:10198200940A5018E561C3940A5011056DE56D94EF
:1019920006400CE4F56EF56FF56D8003E4F56DD34A
:1019A200E56C9570E56B94004013755901E55FD3C2
:1019B2009403400ED2A4122AEBC2A48000E4F55F85
:1019C200F559D3E56F94C0E56E9412400ED2A4127D
:1019D2002AEBC2A4E4F56EF56FF56DE4F55BE4F570
:1019E20037AB32AA317D027F50122235E4F537AB94
:1019F2002EAA2D7D047F1E122235E4F537AB30AAC4
:0B1A02002F7D047F501222350218D8FF
:011A0D0022B6
:101B9400E4F52D752E01FF1228887BFF7A2379F74F
:101BA400E4FDFCFF1220EF7BFF7A2479077D027CA1
:101BB40000E4FF12235D7BFF7A2479187D067C0004
:101BC400E4FF12235D7BFF7A24791E7D067C007F6F
:101BD4006412235D1228628F2DE52D640270447F08
:101BE4000112244A7BFF7A2379F7E4FDFCFF1223D8
:101BF4005D7BFF7A2479077D027C00E4FF1220EFED
:101C04007BFF7A2479187D067C00E4FF12235D7B38
:101C1400FF7A24791E7D067C007F6412235D752E75
:101C24000280B1E52D640370457F0212244A7BFFD4
:101C34007A2379F7E4FDFCFF1220EF7BFF7A247905
:101C4400077D027C00E4FF12235D7BFF7A24791870
:101C54007D067C00E4FF12235D7BFF7A24791E7DE0
:101C6400067C007F6412235D752E01021BD8E52DCE
:101C7400B40406E4F563F56222E52D640160030211
:101C84001BD8E52EB401057563038003756304E472
:021C9400F562F7
:011C9600222B
:0100090022D4
:101C9700E4F52DFF1228887BFF7A247922E4FDFCE6
:101CA7007F2812235D7BFF7A24792A7D027C00E45A
:101CB700FF12235D7B007A007970122A1F8057126A
:101CC70028628F2DE52D6402702474052570F57048
:101CD700D39446400375700A7F0212244A7BFF7A29
:101CE70024792A7D027C00E4FF12235D8028E52DFC
:101CF7006403705274FB2570F570C3940A50037522
:101D070070467F0212244A7BFF7A24792A7D027C5F
:101D170000E4FF12235DE570FB7A007537017D0251
:101D27007F501222357BFF7A2479347D067C00E4CC
:101D3700FF12235D7BFF7A24791E7D067C007F647A
:101D470012235D021CC6E52DB40407756301E4F593
:101D57006222E52D64016003021CC6FB7A007970DC
:101D6700122986E4FF1228887BFF7A247937E4FD5D
:101D7700FC7F2812235D7FF47E01122A5EE4F5635F
:021D8700F56203
:011D89002237
:101D8A00E4F52DFF1228887BFF7A247922E4FDFCF2
:101D9A007F2812235D7BFF7A2479407D027C00E450
:101DAA00FF12235D7B007A007970122A1F8053127A
:101DBA0028628F2DE52D640270220571E571D39496
:101DCA000C40037571037F0212244A7BFF7A24793F
:101DDA00407D027C00E4FF12235D8026E52D64032A
:101DEA0070501571E571C39401500375710C7F022F
:101DFA0012244A7BFF7A2479407D027C00E4FF1298
:101E0A00235DE571FB7A00E4F5377D027F501222EB
:101E1A00357BFF7A2479347D067C00E4FF12235D4A
:101E2A007BFF7A24791E7D067C007F6412235D0283
:101E3A001DB9E52DB40407756301E4F56222E52DA9
:101E4A0064016003021DB9FB7A007970122986E4E5
:101E5A00FF1228887BFF7A247937E4FDFC7F281259
:0E1E6A00235D7FF47E01122A5EE4F563F562CB
:011E78002247
:10145C00021717E86480F8E933E83360110460F090
:10146C00ED33EC337009E8FCE9FDEAFEEBFF2204F6
:10147C0060DED3EB9FEA9EE99DE8C2E78CF0C2F7F1
:10148C0095F0400CE8CCF8E9CDF9EACEFAEBCFFBBD
:10149C001216E285D0F05804700320D5B3E804701E
:1014AC00075002B2D502172192D5EC0460F7E4CCB8
:1014BC00C0E0C398F8603B94186008400DD0E0FB86
:1014CC000216F9E4FBFAC9FC8028E830E406E4C90A
:1014DC00FBE4CAFCE830E305E4C9CACBFCE85407DA
:1014EC006010F8C3E913F9EA13FAEB13FBEC13FCE5
:1014FC00D8F130F52FC3E49CFCEF9BFFEE9AFEED88
:10150C0099FDD0E0FBEF4E4D4C701222DB0302171D
:10151C001EEC2CFCEF33FFEE33FEED33FDED30E72C
:10152C00EB0216F9EF2BFFEE3AFEED39FDD0E0FBA6
:10153C0050130BBB0003021721ED13FDEE13FEEF4E
:08154C0013FFEC13FC0216F979
:10155400021721EC5D046005E859047003021717B3
:101564001216E2580460F6EC4860F2EC7004FDFEDA
:10157400FF22C860DB2481C85009C398600250066A
:1015840002171E9850CAF582E9294B4A7005AB82AE
:1015940002170D75F0007C1A7880C3EF9BEE9AED6C
:1015A40099400DC3EF9BFFEE9AFEED99FDE842F0E2
:1015B400DC23ACF0D0E0FFD0E0FED0E0FDAB822035
:1015C400E7101BEB60BAEC2CFCEF33FFEE33FEEDBF
:1015D40033FD0216F9E803F830E705C0F075F000B2
:1015E400EF2FFFEE33FEED33FD40B830E7C280AAA3
:1015F40074F8CC6480CCC86480C8F58204604FC39E
:10160400EB9FF5F0EA9E42F0E99D42F0E89C45F03C
:10161400603C501DE5825FFFE582D313CB5BCBF4C6
:101624002B5582FB50280ABA002409B900200880EF
:101634001DE5825BFBE582D313CF5FCFF4C3132F89
:101644005582FF50090EBE00050DBD00010CC3EB11
:101654009FF5F0EA9E42F0E99D42F0E89C45F06077
:0916640007CC4820E701B3EC2299
:10166D0075F020800E75F010800575F0087D007EF8
:10167D00007F003392D530D50312185EEC33401045
:10168D00EF33FFEE33FEED33FDEC33FCD5F0ED2201
:0E169D00E5F0247EA2D513CC92E7CDCEFF223D
:1016AB00EDD2E7CD33EC3392D524814006E4FFFE37
:1016BB00FDFC22FCE4CFCECDCC24E0501174FF8096
:1016CB00EDC3CC13CCCD13CDCE13CECF13CF047033
:0716DB00F030D5DE02185EBD
:1016E200E9D2E7C933E833F892D5EDD2E7CD33EC4E
:0716F20033FC5002B2D522C7
:1016F900EC30E7100FBF000C0EBE00080DBD000452
:101709000BEB6014A2D5EB13FCED92E7FD2274FFFD
:10171900FCFDFEFF22E480F8A2D574FF13FC7D8056
:03172900E480EF6A
:030000000222CB0E
:0C22CB00787FE4F6D8FD758172022312C2
:10172C00BB010689828A83E0225002E722BBFE02BB
:09173C00E32289828A83E49322EE
:10174500BB010CE58229F582E5833AF583E0225059
:1017550006E92582F8E622BBFE06E92582F8E222A3
:0D176500E58229F582E5833AF583E49322BD
:10177200BB010689828A83F0225002F722BBFE0156
:02178200F32250
:10178400F8BB010DE58229F582E5833AF583E8F09B
:10179400225006E92582C8F622BBFE05E92582C847
:0217A400F2222F
:1017A600BC000BBE0029EF8DF084FFADF022E4CC27
:1017B600F875F008EF2FFFEE33FEEC33FCEE9DECF0
:1017C600984005FCEE9DFE0FD5F0E9E4CEFD22ED36
:1017D600F8F5F0EE8420D21CFEADF075F008EF2F80
:1017E600FFED33FD4007985006D5F0F222C398FD71
:0517F6000FD5F0EA220E
:1017FB00BB010A89828A83E0F5F0A3E022500687B9
:10180B00F009E71922BBFE07E3F5F009E31922897A
:0B181B00828A83E493F5F074019322AD
:10182600BB0110E58229F582E5833AF583E0F5F000
:10183600A3E0225009E92582F886F008E622BBFEDD
:101846000AE92582F8E2F5F008E222E5832AF58323
:08185600E993F5F0A3E99322E8
:0E185E00C3E49FFFE49EFEE49DFDE49CFC229B
:06186C008A838982E47307
:1022D7000228ADE493A3F8E493A34003F68001F248
:1022E70008DFF48029E493A3F85407240CC8C33308
:1022F700C4540F4420C8834004F456800146F6DFD7
:10230700E4800B010204081020408090256CE47ED5
:10231700019360BCA3FF543F30E509541FFEE493CB
:10232700A360010ECF54C025E060A840B8E493A392
:10233700FAE493A3F8E493A3C8C582C8CAC583CABD
:10234700F0A3C8C582C8CAC583CADFE9DEE780BE75
:0125C2000018
:00000001FF
