:10000E004350553A535443313243354136305332CF
:10001E0000464C4153483A36304B42005352414D04
:10002E003A313238304279746500453250524F4D74
:10003E003A20314B4200000000000000000000009A
:10004E0000000000000000000000000000000000A2
:10005E00000000000000000202FAFAAAAAFFFFAA9E
:10006E00AAFAFA020200004272723A7A424B5B52CC
:10007E00626213776600203C1CFFFFB0B424243F5D
:10008E003FE4E4242420020203FFFF0001051D5972
:10009E00C1FF7F010101000000F8F8484C4F4B4AA8
:1000AE004848F8F80000000000FFFF444444444470
:1000BE004444FFFF0000202424E4E42424243010D0
:1000CE00FFFF10F0F000081C1F0B0C0D4F6E341CC0
:1000DE000F23607F3F0080C060F8FF070200FFFF24
:1000EE00E0703C1C08000000007F7F0406033F7F89
:1000FE004040407878000000000000000000000042
:10010E0000000000000000000000000000000000E1
:10011E0000000000000000000000000000000000D1
:10012E0000000000000000000000000000000000C1
:10013E0000000000000010218670007E4A4A4A4AE4
:10014E004A7E0000000002FE01407F41417F414196
:10015E007F41417F40000000FC042424FCA5A6A49E
:10016E00FC242424040080601F808042462A121240
:10017E002A2642C04000080808FF884800984828F0
:10018E000A2C48D808000242817F000040424242B9
:10019E007E424242400000504F4A48FF48484800C5
:1001AE00FC0000FF000000003F0101FF21613F0045
:1001BE000F40807F000000908CA4A4A4A5A6A4A448
:1001CE00A4A4948C04000080402018070000003F77
:1001DE00404040700000000474D4FFD47404100C2E
:1001EE00B744B40C04000042437A4342437E4B4B67
:1001FE004A4A42430100080808080808F94A4C48D0
:10020E0048C808080800404020100C030000204099
:10021E00403F0000000000202C246474ADA6E4349E
:10022E0024242C2400000024242515150DFE040D75
:10023E00171424642400000000F848484C4B4A4828
:10024E004848F8000000000000FF44444444444481
:10025E004444FF000000202424E424242420101011
:10026E00FF1010F00000081C0B080C054E24100C9B
:10027E000320403F0000080808FF884800984828DF
:10028E000A2C48D808000242817F000040424242B8
:10029E007E424242400000504F4A48FF48484800C4
:1002AE00FC0000FF000000003F0101FF21613F0044
:1002BE000F40807F00000807FAAAAEAAAAA8ACAB2E
:1002CE00AAFE0A02020008088B6A1E0A0A0A0AFE21
:1002DE000A0B08080800106001C63000101010FF4D
:1002EE001010101000000404FE01004161514D4336
:1002FE00414151E101004041CE04008040BE828266
:10030E0082BEC040400000007F20908040432C10F1
:10031E00102C43C0400020212EE40000202020207D
:10032E00FF20202020000000007F20100800000089
:10033E00FF00000000000000F848484848FF484809
:10034E004848F800000000000F040404043F444431
:10035E0044444F40700000000202020202E2120A00
:10036E00060200800000010101010141817F0101AF
:10037E000101010101000020202222E2222222E2BC
:10038E00222222202000004020100C030000003FFB
:10039E004040404070004020F80F82601E1410FF55
:1003AE001010101000000000FF000101010101FFFC
:1003BE00010101010100000000007E484848484844
:1003CE00484848CC0800000404040404040404242F
:1003DE004644201F0000849494FF94948024242487
:1003EE00FC1213120000201806FF021C0A02020261
:1003FE003F41414171001010D0FE5090001010107E
:10040E00D0FE10101000080601FF00011008044372
:10041E00807F000000009088A7A2A6BAA2F8A7A22B
:10042E00A6BAA282800000040404040C340444849E
:10043E007F04040400000000000000000000002FF4
:10044E00000000000700070000147F147F14002432
:10045E002A7F2A120062640813230036495522505F
:10046E0000000503000000001C2241000000412294
:10047E001C000014083E08140008083E080800007E
:10048E0000A0600000080808080800006060000076
:10049E00002010080402003E5149453E0000427FF4
:1004AE004000004261514946002141454B31001840
:1004BE0014127F10002745454539003C4A49493002
:1004CE0000017109050300364949493600064949BC
:1004DE00291E0000363600000000563600000008C7
:1004EE0014224100001414141414000041221408A4
:1004FE0000020151090600324959513E007C121189
:10050E00127C007F49494936003E41414122007F1D
:10051E004141221C007F49494941007F09090901D7
:10052E00003E4149497A007F0808087F0000417F5C
:10053E004100002040413F01007F08142241007F0E
:10054E0040404040007F020C027F007F0408107F75
:10055E00003E4141413E007F09090906003E4151DE
:10056E00215E007F0919294600464949493100019B
:10057E00017F0101003F4040403F001F2040201FEF
:10058E00003F4038403F00631408146300070870B2
:10059E00080700615149454300007F414100005565
:1005AE002A552A55000041417F0000040201020431
:1005BE00004040404040000001020400002054541E
:1005CE005478007F4844443800384444442000386E
:1005DE004444487F00385454541800087E090102E0
:1005EE000018A4A4A47C007F080404780000447DB5
:1005FE004000004080847D00007F102844000000F1
:10060E00417F4000007C04180478007C08040478C4
:10061E0000384444443800FC2424241800182424B0
:10062E0018FC007C080404080048545454200004AC
:10063E003F444020003C4040207C001C2040201CB9
:10064E00003C4030403C004428102844001CA0A030
:10065E00A07C004464544C4414141414141400006C
:10066E00000000000000000000000000000000007C
:10067E0000F8000000000000003330000000001001
:10068E000C06100C0600000000000000000040C028
:10069E007840C0784000043F04043F04040000701A
:1006AE0088FC08300000001820FF211E0000F00812
:1006BE00F000E018000000211C031E211E0000F0B7
:1006CE000888700000001E212324192721101016FF
:1006DE000E000000000000000000000000000000FE
:1006EE0000E018040200000000071820400000027D
:1006FE000418E000000000402018070000004040F1
:10070E0080F0804040000202010F01020200000052
:10071E0000F0000000000101011F010101000000B6
:10072E0000000000000080B070000000000000001B
:10073E0000000000000000010101010101010000A4
:10074E00000000000000003030000000000000003B
:10075E00000080601804006018060100000000E030
:10076E0010080810E000000F102020100F000010DD
:10077E0010F8000000000020203F20200000007034
:10078E00080808887000003028242221300000302C
:10079E000888884830000018202020110E00000024
:1007AE00C02010F8000000070424243F240000F8A5
:1007BE000888880808000019212020110E0000E08A
:1007CE00108888180000000F112020110E0000382C
:1007DE000808C83808000000003F00000000007044
:1007EE00880808887000001C222121221C0000E0CD
:1007FE0010080810E0000000312222110F00000046
:10080E0000C0C000000000000030300000000000FA
:10081E00008000000000000080600000000000006A
:10082E008040201008000001020408102000404003
:10083E004040404040000404040404040400000846
:10084E0010204080000000201008040201000070FB
:10085E0048080808F0000000003036010000C030E3
:10086E00C828E810E0000718272423140B00000006
:10087E00C038E0000000203C23020227382008F890
:10088E00888888700000203F202020110E00C03084
:10089E00080808083800071820202010080008F85B
:1008AE0008080810E000203F202020100F0008F854
:1008BE008888E8081000203F20202320180008F820
:1008CE008888E8081000203F200003000000C03098
:1008DE0008080838000007182020221E020008F819
:1008EE0008000008F808203F210101213F200008E0
:1008FE0008F8080800000020203F2020000000001B
:10090E000808F8080800C08080807F00000008F802
:10091E0088C028180800203F20012638200008F83B
:10092E00080000000000203F20202020300008F8A2
:10093E00F800F8F80800203F003F003F200008F8BC
:10094E0030C00008F808203F200007183F00E010D4
:10095E0008080810E0000F10202020100F0008F8E3
:10096E0008080808F000203F210101010000E010F6
:10097E0008080810E0000F18242438504F0008F81B
:10098E00888888887000203F2000030C302000707B
:10099E008808080838000038202121221C00180879
:1009AE0008F8080818000000203F2000000008F892
:1009BE0008000008F808001F202020201F000878DB
:1009CE00880000C83808000007380E010000F8083B
:1009DE0000F80008F800033C0700073C0300081865
:1009EE0068808068180820302C03032C30200838CB
:1009FE00C800C83808000000203F20000000100882
:100A0E000808C838080020382621202018000000C9
:100A1E0000FE020202000000007F40404000000C79
:100A2E0030C000000000000000010638C0000002C7
:100A3E000202FE000000004040407F000000000067
:100A4E00040202020400000000000000000000008A
:100A5E000000000000008080808080808080000286
:100A6E000204000000000000000000000000000072
:100A7E008080808000000019242222223F2008F866
:100A8E00008080000000003F112020110E000000A9
:100A9E00008080800000000E112020201100000038
:100AAE0000808088F800000E112020103F200000EA
:100ABE00808080800000001F2222222213000080EE
:100ACE0080F0888888180020203F20200000000039
:100ADE00808080808000006B94949493600008F86E
:100AEE00008080800000203F210000203F200080F9
:100AFE009898000000000020203F202000000000F9
:100B0E0000809898000000C08080807F000008F868
:100B1E00000080808000203F24022D30200000083D
:100B2E0008F8000000000020203F202000008080F8
:100B3E00808080808000203F20003F20003F80800A
:100B4E00008080800000203F210000203F20000018
:100B5E00808080800000001F202020201F008080C9
:100B6E0000808000000080FFA12020110E000000F8
:100B7E00008080808000000E112020A0FF808080E9
:100B8E0080008080800020203F2120000100000096
:100B9E00808080808000003324242424190000806B
:100BAE0080E0808000000000001F20200000808078
:100BBE00000000808000001F202020103F20808039
:100BCE0080000080808000010E30080601008080C9
:100BDE000080008080800F300C030C300F000080EE
:100BEE008000808080000020312E0E312000808019
:100BFE0080000080808080818E7018060100008049
:100C0E008080808080000021302C22213000000066
:100C1E000000807C020200000000003F4040000007
:100C2E000000FF00000000000000FF0000000002B6
:100C3E00027C800000000040403F000000000006E3
:100C4E000101020204040000000000000000000385
:100C5E00050911FF118905C300E000F000F800003E
:100C6E0000000000004428FF11AA4400000000000C
:100C7E000000000000000000000000000000000066
:100C8E000000000000000000000000000000000056
:100C9E000000000000000000000000000000000046
:100CAE00000000000000000083013844829292741C
:100CBE000183000000000000007C44C7017D7D7DA3
:100CCE007D017D7D7D7D017D7D7D7D01FF000000AF
:100CDE000000000100010001000100010001000000
:100CEE0000000000000000010100000000000000F4
:100CFE0000000000000000000000000000000000E6
:100D0E0000000000000000000000000000000000D5
:100D1E0000000000000000000000000000000000C5
:100D2E0000000000000000000101000000000000B3
:100D3E00010100000000000000000001010101019E
:100D4E000101010101010101010101010100000088
:100D5E0000000000000000404040404000006D6D6B
:100D6E006D6D6D000060606060600000404040404E
:100D7E004000000000000000000000000000000025
:100D8E000000000000000000000000000000000055
:100D9E000000000000000000000000000000000045
:100DAE000000000000000000000000000000000035
:100DBE000000000000000000000000000000000025
:100DCE000000000000000000000000000000000015
:100DDE0000000000000000DBDBDBDBDB0000DBDB08
:100DEE00DBDBDB0000DBDBDBDBDB0000DBDBDBDBB1
:100DFE00DB0000DADADADADA0000D8D8D8D8D80090
:100E0E0000C0C0C0C0C00000C0C0C0C0C00000C094
:100E1E00C0C0C0C00000C0C0C0C0C0000080808084
:100E2E0080800000000000000000000000000000B4
:100E3E0000000000000000000000000000000000A4
:100E4E000000000000000000000000000000000094
:100E5E00000000000000000606060606000006065A
:100E6E00060606000006060606060000060606062C
:100E7E00060000060606E666200006068606060042
:100E8E000006060606860000060606060600008612
:100E9E008686868680808686068686C0C0868686FC
:100EAE000606D0307606060606000006060606067C
:100EBE0000000606060606000006060606060000E8
:100ECE0006060606060000000000000000000000F6
:100EDE000000000000000000000000000000000004
:100EEE0000000000000000000000000000000000F4
:100EFE000000000000000000601C00FE0001020067
:100F0E00C41820029E63B20E00FF8181FF00008094
:100F1E0040300F00000000FF0023EAAABFAAEA0338
:100F2E003F00FF0000000000000000000000000075
:100F3E0000000000000000000000000000000000A3
:100F4E000000000000000000000000000000000093
:100F5E000080808000000000008080800000000083
:100F6E000000000000000000000000000000000073
:100F7E000000000000000E0C08000001010101013C
:100F8E0000000001000000010081808081808180CE
:100F9E0080808001010101000000010000000100BD
:100FAE000101090C0E00000000000000000000000E
:100FBE00000000000000C0C0C0C0C0C0C0C0C0C0A3
:100FCE00C0C0C0C0C0C0C0C0C0C0C0C0C000001E35
:100FDE0021404050215E001E21404050215E000005
:100FEE0000000000000000000000000000000000F3
:100FFE0000000000000000000000000000000000E3
:10100E00000000000000000000FFFFC1C1FFFFC193
:10101E00C1FFFF0000000000000000000000000003
:10102E0000000000000000000000000000000000B2
:10103E00000000000000FFFF80FCF3EFF3FC80FFD8
:10104E0080EEEEEEF5FBFF9CBEB6B688FF00000309
:10105E00050911FF118905C300E000F000F800003A
:10106E0000000000004428FF11AA44000000000008
:10107E000000000000000000000000000000000062
:10108E000000000000000000000000000000000052
:10109E000000000000000000000000000000000042
:1010AE000000000000000000830138448292927418
:1010BE000183000000000000007C44FF017D7D7D67
:1010CE007D017D7D7D7D017D7D7D7D01FF000000AB
:1010DE0000000001000100010001000100010000FC
:1010EE0000000000000000010100000000000000F0
:1010FE0000000000000000000000000000000000E2
:10110E0000000000000000000000000000000000D1
:10111E0000000000000000000000000000000000C1
:10112E0000000000000000000101000000000000AF
:10113E00010100000000000000000001010101019A
:10114E000101010101010101010101010100000084
:10115E000000000000000000000000000000000081
:10116E0000000000000000000000000000F8080869
:10117E00080808080800F818608000000080601851
:10118E00F80000002020F8000000000000E0100829
:10119E0008080810E00000002020F8000000000001
:1011AE000000000000000008080808088868180001
:1011BE000000000000000000000000000000000021
:1011CE000000000000000000000000000000000011
:1011DE000000000000000000000000000000000001
:1011EE00000000000000000000000000007F010170
:1011FE000101010100007F00000106180601000038
:10120E007F00000040407F4040000000001F204053
:10121E00404040201F00000040407F404000000042
:10122E0000006000000000000060180601000000D1
:10123E0000000000000000000000000000000000A0
:10124E000000000000000000000000000000000090
:10125E000000000000000000000000000000000080
:10126E000000000000000000000000000000000070
:10127E0000000040202020C00000E0202020E000E0
:10128E00000040E00000000060202020E000000090
:10129E000000E0202020E000000000004020202080
:1012AE00C0000040202020C0000000000000000010
:1012BE000000000000000000000000000000000020
:1012CE000000000000000000000000000000000010
:1012DE000000000000000000000000000000000000
:1012EE0000000000000000000000000000000000F0
:1012FE000000000C0A0A090C00000F0808080F0075
:10130E000000080F080000000C0809090E00000C70
:10131E0000000F0909090F00000C00000C0A0A0951
:10132E000C00000C0A0A090C00000000000000006E
:10133E00000000000000000000000000000000009F
:10134E00000000000000000000000000000000008F
:10135E00000000000000000000000000000000007F
:10136E00000000000000000000000000000000006F
:10137E00000000000000000000000000000000005F
:10138E00000000000000000000008080808080804F
:10139E00808000000000000000000000000000003F
:1013AE00000000000000000000000000000000002F
:1013BE00000000000000000000000000000000001F
:1013CE000000000000000000000000000000007F90
:1013DE00030C300C037F00003854545800007C047A
:1013EE00047800003C40407C00000000000000003B
:1013FE0000000000000000000000000000000000DF
:10140E0000000000000000000000FFAAAAAA2808A1
:10141E0000FF0000000000000000000000000000BF
:10142E0000000000000000000000000000000000AE
:10143E00000000000000007F030C300C037F000052
:0E144E00264949493200007F020408107F0041
:082E16007F0C7EA8DEFEDFFC4C
:012E1E002291
:102C89007FE07E2E7DA87C00ED1D70011C144C7028
:0A2C9900F7EF1F70011E144E70EEDD
:012CA300220E
:102DA400AD07AC06ED1DAE0470011C4E6005122E7D
:042DB4001680F12272
:092E1F00D2A6D2A5C2A5C2A622CA
:092E2800C2A6C2A5D2A6D2A522C1
:072B2C00AD07122E1F7F7898
:102B3300E4FEEF30E704D2A58002C2A5D2A6C2A666
:0E2B4300EF25E0FF0EBE08EAD2A5D2A6C2A67C
:012B51002261
:102A860075F010A42CF582E435F0F583E582246C0C
:0B2A9600F582E5833406F583E493FF2E
:102AA100122B2C7F40122B33AF05122B33022E2811
:102DDF00122B2CE4FF122B33AF05122B33022E28AC
:102C4E00AC07ED24B0FF122DDFEC54F0C4540F444A
:0E2C5E0010FF122DDFEC540F4401FF022DDF9A
:022B9E00AC0782
:102BA000E4FBEB24B0FF122DDF7F01122DDF7F103D
:102BB000122DDFE4FAAF04122AA10ABA80F70BBB88
:022BC00008E02B
:012BC20022F0
:10214F007FAE122DDFE4FF122DDF7F10122DDF7F08
:10215F0040122DDF7F81122DDF7FCF122DDF7FA168
:10216F00122DDF7FC8122DDF7FA6122DDF7FA81261
:10217F002DDF7F3F122DDF7FD3122DDFE4FF122DD6
:10218F00DF7FD5122DDF7F80122DDF7FD9122DDF5C
:10219F007FF1122DDF7FDA122DDF7F12122DDF7FFD
:1021AF00DB122DDF7F40122DDF7F20122DDF7F020C
:1021BF00122DDF7F8D122DDF7F14122DDF7FA412E2
:1021CF002DDF7FA6122DDF7FAF122DDFE4FF122B45
:1021DF009EE4FDFF122C4E7BFF7A00790EE4FDFC8E
:1021EF00FF1226B17A00791F7D021226AB7A007991
:1021FF002A7D041226AB7BFF7A0079387D061226E2
:0D220F00AD7F207E03122DA4E4FF022B9E64
:0627FB008C458D46AA0783
:10280100E4FCF547EB24E0F9EAD3947E400AE4FACC
:102811000546E54670020545AF02AD46122C4EE471
:10282100FCE9122A860CBC08F8AF02E54604FD1249
:102831002C4EE4FC75F010E9A42CF582E435F0F59A
:1028410083E5822474F582E5833406122A9C0CBC4C
:0228510008E29B
:012853002262
:08299C008B45AA078D828C8394
:1029A400E4FCF546EAD3947E4003E4FAA3AF02AD17
:1029B40082122C4EE4FCE4FF122AA10CBC08F7AFEF
:1029C40002AE82EE04FD122C4EE4FCE4FF122AA1B6
:0429D4000CBC08F738
:0129D80022DC
:0626AB007BFF7C00E4FF50
:0C26B1008F368C378D388B398A3A893B84
:1026BD00E4F53CFCF53DAB39AA3AA93B853D827565
:1026CD008300121745605D24E0F53CE536D3947820
:1026DD00400BE4F5360538E53870020537AD38AFF7
:1026ED0036122C4EE4FCE53C122A860CBC08F7E5AC
:1026FD003804FDAF36122C4EE4FC75F010E53CA409
:10270D002CF582E435F0F583E5822474F582E583BA
:10271D003406122A9C0CBC08E174082536F53605E2
:04272D003D0226C380
:012731002285
:0C23A8008F2F8C308D318B328A338934BA
:1023B400E4F535FCF536AB32AA33A934853682759B
:1023C4008300121745700302244D24E0F535E52FF0
:1023D400D39478400BE4F52F0531E53170020530D4
:1023E400AD31AF2F122C4EE4FC75F010E535A42C62
:1023F400F582E435F0F583E582246CF582E58334D7
:1024040006F583E493F4FF122AA10CBC08DBE53142
:1024140004FDAF2F122C4EE4FC75F010E535A42C0E
:10242400F582E435F0F583E5822474F582E583349E
:1024340006F583E493F4FF122AA10CBC08DB7408AC
:09244400252FF52F05360223BAFD
:01244D00226C
:082589008F368D378A388B393B
:10259100753C03753DE8E4F53E85363F853740855A
:1025A1003841853942853C43853D44F53BAC3CADE2
:1025B1003DAE38AF391217A6EF4E6003753E01E507
:1025C1003E601FEF2430FBE537FD7C00AF3612275C
:1025D100FBAE38AF39AC3CAD3D1217A68C388D3906
:1025E100800CE537FD7C00E4FBAF3612299C7408B2
:1025F1002536F536AE3CAF3D7C007D0A1217A68E1E
:102601003C8F3D053BE53BC3940440A1E53AB40151
:0D2611000CE537FD7C007B25AF361227FB62
:01261E002299
:10273200E4FBFAF52FF530EF24FE60101460141458
:1027420060182403701FE4F9F5308019E4F975303C
:1027520002800CE4F97530048005E4F9753006FF57
:10276200AD30122C4EE9C39480502DAF01AD301222
:102772002C4EE4FBE4FF122AA10BBB08F7AF01E5E4
:102782003004FD122C4EE4FBE4FF122AA10BBB081D
:08279200F7740829F90A80CD53
:01279A00221C
:102C6C00EF4488F5BC000000000000E5BC30E4FB3C
:0C2C7C0053BCEFAFBDEF70027F017E0083
:012C88002229
:0F2DEF00759DFFE4F5BD75BC807F02FE022CA42C
:102CA400EF1FAA0670011E4A60107C137D88ED1D7B
:0A2CB400AA0470011C4A60E880F4D5
:012CBE0022F3
:0A1C17008C4B8D4C8B488A49894A9A
:101C21001217FBFDACF0E41216728F508E4F8D4EE1
:101C31008C4DAB48AA49A94A1217FBFDACF0E4123E
:101C410016728F548E538D528C51E4F558F557F519
:101C510056F555F559C3E559954CE4954B400302AA
:101C61001D52AB58AA57A956A855C000C001C002C1
:101C7100C003AB48AA49A94A75F002E559A4F58207
:101C810085F083121826FDACF0E4121672D003D051
:101C910002D001D0001214638F588E578D568C5587
:101CA100AB48AA49A94A75F002E559A4F58285F025
:101CB10083121826FDACF0E4121672AB50AA4FA99C
:101CC1004EA84D1215F4501DAB48AA49A94A75F00A
:101CD10002E559A4F58285F083121826FDACF0E4E3
:101CE1001216728008AF50AE4FAD4EAC4D8F508E74
:101CF1004F8D4E8C4DAB48AA49A94A75F002E55962
:101D0100A4F58285F083121826FDACF0E412167258
:101D1100AB54AA53A952A8511215F4601F401DAB30
:101D210048AA49A94A75F002E559A4F58285F083CC
:101D3100121826FDACF0E41216728008AF54AE53AF
:101D4100AD52AC518F548E538D528C510559021C9A
:101D510056AB50AA4FA94EA84DAF58AE57AD56AC91
:101D61005512145FAB54AA53A952A85112145FC063
:101D710004C005C006C007E54C24FEFDE54B34FF59
:101D8100FCE4121672A804A905AA06AB07D007D075
:0B1D910006D005D0041215571216AB47
:011D9C002224
:102DCC0053877F759850438E04759CD9438E01436D
:032DDC008E102234
:0A285400016600016501026700053E
:102BC300122DCC12214F122DEF122E4F122D747D88
:102BD300017F09122B047B007A0079701228AB1253
:042BE30022E880FB69
:1022E800E4F52C122B528F2CE52C14603824FE6058
:1022F8001614602224027040E56675F008A4244F85
:10230800F582E43424802BE56675F008A42450F5A2
:1023180082E43424801CE56675F008A42452F58212
:10232800E43424800DE56675F008A42451F582E4B0
:102338003424F583E493F566E56665656029E5660A
:1023480075F008A42453F582E43424F583E493FB60
:10235800740193FA740293F98B698A6AF56B85663E
:102368006512186C0222EBE56660030222EBE56653
:10237800656560030222EBE56675F008A42453F551
:1023880082E43424F583E493FB740193FA74029392
:10239800F98B698A6AF56B85666512186C0222EBFF
:10285E00202408010000000000FF0003010000001A
:10286E000000FF2E3A010000000000FF2E40010084
:07287E0000000000FF2E46E0
:06000300E5B05404FF22E9
:062E3A00E5B05408FF2280
:062E4000E5B05410FF2272
:062E4600E5B05420FF225C
:1028FD00E4F537E53775F009A42408F8E66037E507
:10290D003775F009A4240EF808E6FA08E6F912184E
:10291D006CE53775F009A4240BF8E6B5070DE5371E
:10292D0075F009A4240AF87601800BE53775F009D6
:0F293D00A4240AF8E4F60537E537C3940440B440
:01294C002268
:102066001228FDE4F536E53675F009A4240CF8E6E9
:1020760014602924FD606724046003022142E536CA
:1020860075F009A4240AF8E6B4010EE53675F009E0
:10209600A4240CF87601022137022137E53675F0C3
:1020A60009A4240AF8E6B40120E53675F009A4244B
:1020B6000CF87604E53675F009A4240DF87604E5E7
:1020C6003675F009A424098070E53675F009A42454
:1020D6000CF8E4F6E53675F009A4240D805BE536C8
:1020E60075F009A4240AF8E6FF64016015E5367563
:1020F600F009A4240CF8E4F6E53675F009A4240DDD
:102106008037EF6401702AE53675F009A4240EF8CD
:1021160008E6FA08E6F912186CEF60EBE53675F09A
:1021260009A4240CF8E4F6E53675F009A4240D801C
:1021360008E53675F009A4240DF8E4F60536E5360B
:08214600C39404500302206C55
:01214E00226E
:102B5200122066E50DB404037F0122E516B40403D6
:102B62007F0222E51FB404037F0322E528B4040395
:062B72007F04227F002217
:0D2DFE00E4F5C7F5C5F5C675C380F5C42220
:102CBF00C2AF75C78175C5018FC48EC375C65A75EE
:0A2CCF00C6A500AFC2122DFED2AF61
:012CD90022D8
:102D1000C2AF75C78175C5028FC48EC38DC275C61B
:0A2D20005A75C6A500D2AF022DFEC1
:102DB80075C78175C5038FC48EC375C65A75C6A5F8
:042DC80000022DFEDA
:102BE7007F647E00122CBFEF1217727F65122CBF15
:102BF700900001EF1217847F66122CBF900002EF3E
:032C07000217842D
:102B78007F0A7E00122DB812172CFD7F64122D10CB
:102B8800900001121745FD0F122D10900002121728
:062B980045FD0F022D10A7
:1028AB008B2C8A2D892E7F587E02122CBFEF645AF7
:1028BB0060377F0A7E00122DB87F587E02122DB82A
:1028CB007D5A122D10AB2CAA2DA92E740A12177239
:1028DB00AB2CAA2DA92E9000017403121784900023
:1028EB00027432121784122B78AB2CAA2DA92E024C
:0228FB002BE7C9
:03288500017601D8
:032E4C0000002261
:0A2E0B0000007F0C7EA8DEFEDFFC55
:012E1500229A
:0B2CDA007E00122CE5C2A07F057E00EA
:102CE500EF1FAC0670011E4C6005122E4C80F122C0
:042D5C007F027E0074
:102D6000AD07AC06ED1DAE0470011C4E6005122EC1
:042D70000B80F122C1
:102D2A00E576B40109D2A0122CE1D2A18007D2A281
:092D3A00122CE1D2A3122CE122BB
:102C0A00E576B4010FD2A1D2A0122CE1C2A1122CF6
:102C1A00E1C2A022D2A3D2A2122CE1C2A3122CE1B9
:032C2A00C2A22221
:102C2D00E576B4010DC2A0C2A1122CE1D2A0D2A1B1
:102C3D00800BC2A2C2A3122CE1D2A2D2A3122CE10C
:012C4D002264
:0829D900122C0A7FA412279BB7
:1029E100E576B40117D2A0122D5C30A10BE537C3F7
:1029F10094FA5004053780F2C2A08015D2A2122D9C
:102A01005C30A30BE537C394FA5004053780F2C25A
:042A1100A2122D5C84
:012A1500229E
:02279B00AB078A
:10279D00E57664017026FD122CDFEB30E704D2A143
:1027AD008002C2A1122CE1D2A0EB25E0FB7F0A1220
:1027BD002CDA0DBD08E1D2A1D2A0802EE4FDC2A27B
:1027CD00122CE1EB30E704D2A38002C2A3122CE15C
:1027DD00D2A2EB25E0FB7F0A7E00122CE5C2A212ED
:0D27ED002CE10DBD08D8D2A3D2A2122CE120
:0127FA0022BC
:10294D00E4FBE57664017020D2A1FD122CDFD2A04C
:10295D00122CE1EB25E0FBA2A1E43342037F05122B
:10296D002CDA0DBD08E58024D2A3E4FDC2A2122C01
:10297D00E1D2A2122CE1EB25E0FBA2A3E43342034A
:0E298D00122CE1C2A2122CE10DBD08E0AF0336
:01299B002219
:032E4F00022D2A27
:102B0400AA05A9071229D9AF0112279B1229E17F2F
:102B14001E7E00122CE5AF0212279B1229E1122C13
:082B24002D7F0A7E00022D60E6
:022AB100AA0772
:102AB3001229D9AF0212279B1229E17F1E7E001231
:102AC3002CE5122C0A7FA512279B1229E112294D0E
:072AD300AD07122C2DAF0529
:012ADA0022D9
:022A1600A9070E
:102A1800E4F535F536E970057576018006B90123C8
:102A28007576027F04122AB17535008F36E5367542
:102A38003600F5357F05122AB1EF2536F536E4352F
:072A480035F535AE35AF3660
:012A4F002264
:102ADB00D3EF9DEE9C400A8E838F82AA04AB0580B8
:102AEB00088C838D82AA06AB07C3E5829BFFE58327
:082AFB009AFE4F7003FE7F01FB
:012B030022AF
:10288800016000015B00016300015F00015A000163
:0B2898005E00015D00016200015C00B9
:102D7400538E7F5389F0758AB0758C3CC28DE4F50F
:082D840060D2A9D2AFD28C226B
:03000B00022A5076
:102A5000C0E0C0D00560E56064647025F560E55EA7
:102A60007003755E01E55AB40102055FE55CB401CF
:102A7000020562E563C39405500405638003755B3A
:062A800001D0D0D0E032CD
:10244E000000000000FF18720103020400FF1A686A
:10245E000203010500FF00090302010600FF000A46
:10246E000403030001FF1D9D0504040002FF1F7BF2
:10247E000603030003FF1E8C000000000000000096
:10248E00000000000000000000000000000000003E
:10249E00000000000000000000000000000000002E
:1024AE00000000000000000000000000000000001E
:1024BE00000000000000000000000000000000000E
:1024CE0000000000000000000000000000000000FE
:1024DE0000000000000000000000000000000000EE
:1024EE0044697374616E446966663A00657363008D
:1024FE0050726573733A0044697374616E3A0049A1
:10250E0032433A004144433A00312E5365745072BF
:10251E006573734C696D697400322E53657444692A
:10252E007374616E4C696D697400332E5365744417
:10253E0069736469664C696D697400656E74657261
:10254E000053657474696E670050726573737572AB
:10255E00653A006F6B0053617665204F4B21004446
:10256E00697374616E63653A004469737444696695
:0B257E00663A004469666665723A0028
:0728A3000274000001730044
:082E31007F0C7EA8DEFEDFFC31
:012E39002276
:102CF5007F327E007DA87C00ED1D70011C144C7098
:0A2D0500F7EF1F70011E144E70EE70
:012D0F0022A1
:042D8C007FF47E0151
:102D9000AD07AC06ED1DAE0470011C4E6005122E91
:042DA0003180F1226B
:022D4300AB07DC
:102D45007A0AC2B0EBFF7E00122D90D2B0EBFF7E67
:062D550000122D90DAECE3
:012D5B002255
:10221C00E4F535122B528F35E535B401097566019D
:10222C00E4F5657F0122E535640460030222E5FFD5
:10223C00122B9E7BFF7A2479EEE4FDFCFF1226B173
:10224C007BFF7A2479FA7D067C007F641226B17BB1
:10225C00007A007970122BE7E572FB7A00E4F53A0C
:10226C00FD7F5A122589122B528F35E535B404F6B1
:10227C00E4FF122B9E7BFF7A2479FEE4FDFCFF1217
:10228C0026B17BFF7A2579057D027C00E4FF1226BE
:10229C00B17BFF7A25790D7D047C00E4FF1226B119
:1022AC007BFF7A2579127D067C00E4FF1226B17B38
:1022BC00007A007970122BE7E570FB7A00753A0111
:1022CC00E4FD7F28122589E571FB7A00E4F53A7D5F
:0B22DC00027F281225897F00227F006E
:0122E70022D4
:10187200E4FF122B9E7BFF7A2479FEE4FDFCFF122B
:1018820026B17BFF7A2579057D027C00E4FF1226D2
:10189200B17BFF7A25790D7D047C00E4FF1226B12D
:1018A2007BFF7A2579127D067C00E4FF1226B17B4C
:1018B200007A007970122BE7E570FB7A00753A0125
:1018C200E4FD7F28122589E571FB7A00E4F53A7D73
:1018D200027F28021A6112221CEF6003021A67E4D7
:1018E200FF122A168E2D8F2E7F01122A168E2F8F0F
:1018F20030E4FF122C6C8F337F01122C6C8F34ADCD
:1019020030AC2FAF2EAE2D122ADB8E318F32D3E5C3
:10191200329571E5319400401FE5332534FFE433FD
:10192200FED3EF940AEE64809480400C755A01E570
:101932005FD3940A4049803BD3E530952EE52F953D
:101942002D4037E530952EFFE52F952DFED3EF95EF
:1019520072EE94004024E5332534FFE433FED3EFE6
:10196200940AEE648094804011755A01E55FD39425
:101972000A400C7F14122D438000E4F55AF55FE50E
:101982005E64016003021A3A0575E575700205741A
:10199200E4FF122C6C8F617F01122C6C8F64E56165
:1019A200FB7A00E4F53A7D067F1E122589E564FB89
:1019B2007A00E4F53A7D067F50122589AF617E00F8
:1019C200AD647C00122ADB8E6E8F6F753A01AB6FAD
:1019D200AA6EE4FD7F50122589E561C3940A50186E
:1019E200E564C3940A50110573E5739428400CE42E
:1019F200F574F575F5738003E4F573D3E56F9570AF
:101A0200E56E94004011755C01E562D39403400CCD
:101A12007F64122D438000E4F562F55CD3E5759492
:101A220078E5749400400EC2B0122CF5D2B0E4F501
:101A320074F575F573E4F55EE4F53AAB32AA317DDF
:101A4200027F50122589E4F53AAB2EAA2D7D047F40
:101A52001E122589E4F53AAB30AA2F7D047F50127D
:051A620025890218D8DF
:011A6700225C
:101A6800E4F52D752E01FF122B9E7BFF7A25791741
:101A7800E4FDFCFF1223A87BFF7A2579277D027CF1
:101A880000E4FF1226B17BFF7A2579387D047C00BB
:101A9800E4FF1226B17BFF7A2579497D067C00E4B4
:101AA800FF1226B17BFF7A2479FA7D067C007F64D9
:101AB8001226B1122B528F2DE52D64027062E52E8D
:101AC800640170047F018069E52EB402E67F02128A
:101AD80027327BFF7A257917E4FDFCFF1226B17BBC
:101AE800FF7A2579277D027C00E4FF1226B17BFF6F
:101AF8007A2579387D047C00E4FF1223A87BFF7ADD
:101B08002579497D067C00E4FF1226B17BFF7A2403
:101B180079FA7D067C007F641226B1752E038093C6
:101B2800E52D64036003021BE8E52E640370547F0F
:101B3800031227327BFF7A257917E4FDFCFF122672
:101B4800B17BFF7A2579277D027C00E4FF1223A868
:101B58007BFF7A2579387D047C00E4FF1226B17B6F
:101B6800FF7A2579497D067C00E4FF1226B17BFFC8
:101B78007A2479FA7D067C007F641226B1752E02DC
:101B8800021ABBE52E64026003021ABB7F02122709
:101B9800327BFF7A257917E4FDFCFF1223A87BFF2F
:101BA8007A2579277D027C00E4FF1226B17BFF7A33
:101BB8002579387D047C00E4FF1226B17BFF7A2565
:101BC80079497D067C00E4FF1226B17BFF7A2479EF
:101BD800FA7D067C007F641226B1752E01021ABBBD
:101BE800E52DB40406E4F566F56522E52D6401608B
:101BF80003021ABBE52EB40105756604800DE52EB7
:0E1C0800B402057566058003756606E4F56591
:011C160022AB
:0100090022D4
:01000A0022D3
:101D9D00E4F52DFF122B9E7BFF7A25794FE4FDFC98
:101DAD007F281226B17BFF7A2579577D027C00E4CE
:101DBD00FF1226B17B007A007970122BE780571243
:101DCD002B528F2DE52D6402702474052570F5704E
:101DDD00D39446400375700A7F021227327BFF7A37
:101DED002579577D027C00E4FF1226B18028E52D70
:101DFD006403705274FB2570F570C3940A5003751B
:101E0D0070467F021227327BFF7A2579577D027C3F
:101E1D0000E4FF1226B1E570FB7A00753A017D02F0
:101E2D007F501225897BFF7A2579617D067C00E440
:101E3D00FF1226B17BFF7A2479FA7D067C007F6440
:101E4D001226B1021DCCE52DB40407756601E4F52B
:101E5D006522E52D64016003021DCCFB7A007970CB
:101E6D00122B78E4FF122B9E7BFF7A257964E4FD1B
:0E1E7D00FC7F281226B1122D8CE4F566F56567
:011E8B002234
:101F7B00E4F52DFF122B9E7BFF7A25794FE4FDFCB8
:101F8B007F281226B17BFF7A25796D7D027C00E4D8
:101F9B00FF1226B17B007A007970122BE780531267
:101FAB002B528F2DE52D640270220571E571D394B0
:101FBB000C40037571037F021227327BFF7A257960
:101FCB006D7D027C00E4FF1226B18026E52D6403B3
:101FDB0070501571E571C39401500375710C7F023C
:101FEB001227327BFF7A25796D7D027C00E4FF128C
:101FFB0026B1E571FB7A00E4F53A7D027F5012259C
:10200B00897BFF7A2579617D067C00E4FF1226B17E
:10201B007BFF7A2479FA7D067C007F641226B1025D
:10202B001FAAE52DB40407756601E4F56522E52DBD
:10203B0064016003021FAAFB7A007970122B78E40B
:10204B00FF122B9E7BFF7A257964E4FDFC7F28121F
:0A205B0026B1122D8CE4F566F56540
:012065002258
:101E8C00E4F52DFF122B9E7BFF7A25794FE4FDFCA8
:101E9C007F281226B17BFF7A2579777D027C00E4BE
:101EAC00FF1226B17B007A007970122BE780571253
:101EBC002B528F2DE52D64027024740A2572F57255
:101ECC00D394F04003E4F5727F021227327BFF7A41
:101EDC002579817D027C00E4FF1226B18028E52D56
:101EEC006403705274F62572F572C3940A5003752C
:101EFC0072F07F021227327BFF7A2579817D027C7A
:101F0C0000E4FF1226B1E572FB7A00E4F53A7D029B
:101F1C007F501225897BFF7A2579617D067C00E450
:101F2C00FF1226B17BFF7A2479FA7D067C007F6450
:101F3C001226B1021EBBE52DB40407756601E4F54B
:101F4C006522E52D64016003021EBBFB7A007970EB
:101F5C00122B78E4FF122B9E7BFF7A257964E4FD2B
:0E1F6C00FC7F281226B1122D8CE4F566F56577
:011F7A002244
:10145C00021717E86480F8E933E83360110460F090
:10146C00ED33EC337009E8FCE9FDEAFEEBFF2204F6
:10147C0060DED3EB9FEA9EE99DE8C2E78CF0C2F7F1
:10148C0095F0400CE8CCF8E9CDF9EACEFAEBCFFBBD
:10149C001216E285D0F05804700320D5B3E804701E
:1014AC00075002B2D502172192D5EC0460F7E4CCB8
:1014BC00C0E0C398F8603B94186008400DD0E0FB86
:1014CC000216F9E4FBFAC9FC8028E830E406E4C90A
:1014DC00FBE4CAFCE830E305E4C9CACBFCE85407DA
:1014EC006010F8C3E913F9EA13FAEB13FBEC13FCE5
:1014FC00D8F130F52FC3E49CFCEF9BFFEE9AFEED88
:10150C0099FDD0E0FBEF4E4D4C701222DB0302171D
:10151C001EEC2CFCEF33FFEE33FEED33FDED30E72C
:10152C00EB0216F9EF2BFFEE3AFEED39FDD0E0FBA6
:10153C0050130BBB0003021721ED13FDEE13FEEF4E
:08154C0013FFEC13FC0216F979
:10155400021721EC5D046005E859047003021717B3
:101564001216E2580460F6EC4860F2EC7004FDFEDA
:10157400FF22C860DB2481C85009C398600250066A
:1015840002171E9850CAF582E9294B4A7005AB82AE
:1015940002170D75F0007C1A7880C3EF9BEE9AED6C
:1015A40099400DC3EF9BFFEE9AFEED99FDE842F0E2
:1015B400DC23ACF0D0E0FFD0E0FED0E0FDAB822035
:1015C400E7101BEB60BAEC2CFCEF33FFEE33FEEDBF
:1015D40033FD0216F9E803F830E705C0F075F000B2
:1015E400EF2FFFEE33FEED33FD40B830E7C280AAA3
:1015F40074F8CC6480CCC86480C8F58204604FC39E
:10160400EB9FF5F0EA9E42F0E99D42F0E89C45F03C
:10161400603C501DE5825FFFE582D313CB5BCBF4C6
:101624002B5582FB50280ABA002409B900200880EF
:101634001DE5825BFBE582D313CF5FCFF4C3132F89
:101644005582FF50090EBE00050DBD00010CC3EB11
:101654009FF5F0EA9E42F0E99D42F0E89C45F06077
:0916640007CC4820E701B3EC2299
:10166D0075F020800E75F010800575F0087D007EF8
:10167D00007F003392D530D50312185EEC33401045
:10168D00EF33FFEE33FEED33FDEC33FCD5F0ED2201
:0E169D00E5F0247EA2D513CC92E7CDCEFF223D
:1016AB00EDD2E7CD33EC3392D524814006E4FFFE37
:1016BB00FDFC22FCE4CFCECDCC24E0501174FF8096
:1016CB00EDC3CC13CCCD13CDCE13CECF13CF047033
:0716DB00F030D5DE02185EBD
:1016E200E9D2E7C933E833F892D5EDD2E7CD33EC4E
:0716F20033FC5002B2D522C7
:1016F900EC30E7100FBF000C0EBE00080DBD000452
:101709000BEB6014A2D5EB13FCED92E7FD2274FFFD
:10171900FCFDFEFF22E480F8A2D574FF13FC7D8056
:03172900E480EF6A
:0300000002261FB6
:0C261F00787FE4F6D8FD7581760226660F
:10172C00BB010689828A83E0225002E722BBFE02BB
:09173C00E32289828A83E49322EE
:10174500BB010CE58229F582E5833AF583E0225059
:1017550006E92582F8E622BBFE06E92582F8E222A3
:0D176500E58229F582E5833AF583E49322BD
:10177200BB010689828A83F0225002F722BBFE0156
:02178200F32250
:10178400F8BB010DE58229F582E5833AF583E8F09B
:10179400225006E92582C8F622BBFE05E92582C847
:0217A400F2222F
:1017A600BC000BBE0029EF8DF084FFADF022E4CC27
:1017B600F875F008EF2FFFEE33FEEC33FCEE9DECF0
:1017C600984005FCEE9DFE0FD5F0E9E4CEFD22ED36
:1017D600F8F5F0EE8420D21CFEADF075F008EF2F80
:1017E600FFED33FD4007985006D5F0F222C398FD71
:0517F6000FD5F0EA220E
:1017FB00BB010A89828A83E0F5F0A3E022500687B9
:10180B00F009E71922BBFE07E3F5F009E31922897A
:0B181B00828A83E493F5F074019322AD
:10182600BB0110E58229F582E5833AF583E0F5F000
:10183600A3E0225009E92582F886F008E622BBFEDD
:101846000AE92582F8E2F5F008E222E5832AF58323
:08185600E993F5F0A3E99322E8
:0E185E00C3E49FFFE49EFEE49DFDE49CFC229B
:06186C008A838982E47307
:10262B00022BC3E493A3F8E493A34003F68001F2D7
:10263B0008DFF48029E493A3F85407240CC8C333B0
:10264B00C4540F4420C8834004F456800146F6DF7F
:10265B00E4800B0102040810204080902854E47E93
:10266B00019360BCA3FF543F30E509541FFEE49374
:10267B00A360010ECF54C025E060A840B8E493A33B
:10268B00FAE493A3F8E493A3C8C582C8CAC583CA66
:10269B00F0A3C8C582C8CAC583CADFE9DEE780BE1E
:0128AA00002D
:00000001FF
