:10000E004350553A535443313243354136305332CF
:10001E0000464C4153483A36304B42005352414D04
:10002E003A313238304279746500453250524F4D74
:10003E003A20314B4200000000000000000000009A
:10004E0000000000000000000000000000000000A2
:10005E00000000000000000202FAFAAAAAFFFFAA9E
:10006E00AAFAFA020200004272723A7A424B5B52CC
:10007E00626213776600203C1CFFFFB0B424243F5D
:10008E003FE4E4242420020203FFFF0001051D5972
:10009E00C1FF7F010101000000F8F8484C4F4B4AA8
:1000AE004848F8F80000000000FFFF444444444470
:1000BE004444FFFF0000202424E4E42424243010D0
:1000CE00FFFF10F0F000081C1F0B0C0D4F6E341CC0
:1000DE000F23607F3F0080C060F8FF070200FFFF24
:1000EE00E0703C1C08000000007F7F0406033F7F89
:1000FE004040407878000000000000000000000042
:10010E0000000000000000000000000000000000E1
:10011E0000000000000000000000000000000000D1
:10012E0000000000000000000000000000000000C1
:10013E0000000000000010218670007E4A4A4A4AE4
:10014E004A7E0000000002FE01407F41417F414196
:10015E007F41417F40000000FC042424FCA5A6A49E
:10016E00FC242424040080601F808042462A121240
:10017E002A2642C04000080808FF884800984828F0
:10018E000A2C48D808000242817F000040424242B9
:10019E007E424242400000504F4A48FF48484800C5
:1001AE00FC0000FF000000003F0101FF21613F0045
:1001BE000F40807F000000908CA4A4A4A5A6A4A448
:1001CE00A4A4948C04000080402018070000003F77
:1001DE00404040700000000474D4FFD47404100C2E
:1001EE00B744B40C04000042437A4342437E4B4B67
:1001FE004A4A42430100080808080808F94A4C48D0
:10020E0048C808080800404020100C030000204099
:10021E00403F0000000000202C246474ADA6E4349E
:10022E0024242C2400000024242515150DFE040D75
:10023E00171424642400000000F848484C4B4A4828
:10024E004848F8000000000000FF44444444444481
:10025E004444FF000000202424E424242420101011
:10026E00FF1010F00000081C0B080C054E24100C9B
:10027E000320403F0000080808FF884800984828DF
:10028E000A2C48D808000242817F000040424242B8
:10029E007E424242400000504F4A48FF48484800C4
:1002AE00FC0000FF000000003F0101FF21613F0044
:1002BE000F40807F00000807FAAAAEAAAAA8ACAB2E
:1002CE00AAFE0A02020008088B6A1E0A0A0A0AFE21
:1002DE000A0B08080800106001C63000101010FF4D
:1002EE001010101000000404FE01004161514D4336
:1002FE00414151E101004041CE04008040BE828266
:10030E0082BEC040400000007F20908040432C10F1
:10031E00102C43C0400020212EE40000202020207D
:10032E00FF20202020000000007F20100800000089
:10033E00FF00000000000000F848484848FF484809
:10034E004848F800000000000F040404043F444431
:10035E0044444F40700000000202020202E2120A00
:10036E00060200800000010101010141817F0101AF
:10037E000101010101000020202222E2222222E2BC
:10038E00222222202000004020100C030000003FFB
:10039E004040404070004020F80F82601E1410FF55
:1003AE001010101000000000FF000101010101FFFC
:1003BE00010101010100000000007E484848484844
:1003CE00484848CC0800000404040404040404242F
:1003DE004644201F0000849494FF94948024242487
:1003EE00FC1213120000201806FF021C0A02020261
:1003FE003F41414171001010D0FE5090001010107E
:10040E00D0FE10101000080601FF00011008044372
:10041E00807F000000009088A7A2A6BAA2F8A7A22B
:10042E00A6BAA282800000040404040C340444849E
:10043E007F04040400000000000000000000002FF4
:10044E00000000000700070000147F147F14002432
:10045E002A7F2A120062640813230036495522505F
:10046E0000000503000000001C2241000000412294
:10047E001C000014083E08140008083E080800007E
:10048E0000A0600000080808080800006060000076
:10049E00002010080402003E5149453E0000427FF4
:1004AE004000004261514946002141454B31001840
:1004BE0014127F10002745454539003C4A49493002
:1004CE0000017109050300364949493600064949BC
:1004DE00291E0000363600000000563600000008C7
:1004EE0014224100001414141414000041221408A4
:1004FE0000020151090600324959513E007C121189
:10050E00127C007F49494936003E41414122007F1D
:10051E004141221C007F49494941007F09090901D7
:10052E00003E4149497A007F0808087F0000417F5C
:10053E004100002040413F01007F08142241007F0E
:10054E0040404040007F020C027F007F0408107F75
:10055E00003E4141413E007F09090906003E4151DE
:10056E00215E007F0919294600464949493100019B
:10057E00017F0101003F4040403F001F2040201FEF
:10058E00003F4038403F00631408146300070870B2
:10059E00080700615149454300007F414100005565
:1005AE002A552A55000041417F0000040201020431
:1005BE00004040404040000001020400002054541E
:1005CE005478007F4844443800384444442000386E
:1005DE004444487F00385454541800087E090102E0
:1005EE000018A4A4A47C007F080404780000447DB5
:1005FE004000004080847D00007F102844000000F1
:10060E00417F4000007C04180478007C08040478C4
:10061E0000384444443800FC2424241800182424B0
:10062E0018FC007C080404080048545454200004AC
:10063E003F444020003C4040207C001C2040201CB9
:10064E00003C4030403C004428102844001CA0A030
:10065E00A07C004464544C4414141414141400006C
:10066E00000000000000000000000000000000007C
:10067E0000F8000000000000003330000000001001
:10068E000C06100C0600000000000000000040C028
:10069E007840C0784000043F04043F04040000701A
:1006AE0088FC08300000001820FF211E0000F00812
:1006BE00F000E018000000211C031E211E0000F0B7
:1006CE000888700000001E212324192721101016FF
:1006DE000E000000000000000000000000000000FE
:1006EE0000E018040200000000071820400000027D
:1006FE000418E000000000402018070000004040F1
:10070E0080F0804040000202010F01020200000052
:10071E0000F0000000000101011F010101000000B6
:10072E0000000000000080B070000000000000001B
:10073E0000000000000000010101010101010000A4
:10074E00000000000000003030000000000000003B
:10075E00000080601804006018060100000000E030
:10076E0010080810E000000F102020100F000010DD
:10077E0010F8000000000020203F20200000007034
:10078E00080808887000003028242221300000302C
:10079E000888884830000018202020110E00000024
:1007AE00C02010F8000000070424243F240000F8A5
:1007BE000888880808000019212020110E0000E08A
:1007CE00108888180000000F112020110E0000382C
:1007DE000808C83808000000003F00000000007044
:1007EE00880808887000001C222121221C0000E0CD
:1007FE0010080810E0000000312222110F00000046
:10080E0000C0C000000000000030300000000000FA
:10081E00008000000000000080600000000000006A
:10082E008040201008000001020408102000404003
:10083E004040404040000404040404040400000846
:10084E0010204080000000201008040201000070FB
:10085E0048080808F0000000003036010000C030E3
:10086E00C828E810E0000718272423140B00000006
:10087E00C038E0000000203C23020227382008F890
:10088E00888888700000203F202020110E00C03084
:10089E00080808083800071820202010080008F85B
:1008AE0008080810E000203F202020100F0008F854
:1008BE008888E8081000203F20202320180008F820
:1008CE008888E8081000203F200003000000C03098
:1008DE0008080838000007182020221E020008F819
:1008EE0008000008F808203F210101213F200008E0
:1008FE0008F8080800000020203F2020000000001B
:10090E000808F8080800C08080807F00000008F802
:10091E0088C028180800203F20012638200008F83B
:10092E00080000000000203F20202020300008F8A2
:10093E00F800F8F80800203F003F003F200008F8BC
:10094E0030C00008F808203F200007183F00E010D4
:10095E0008080810E0000F10202020100F0008F8E3
:10096E0008080808F000203F210101010000E010F6
:10097E0008080810E0000F18242438504F0008F81B
:10098E00888888887000203F2000030C302000707B
:10099E008808080838000038202121221C00180879
:1009AE0008F8080818000000203F2000000008F892
:1009BE0008000008F808001F202020201F000878DB
:1009CE00880000C83808000007380E010000F8083B
:1009DE0000F80008F800033C0700073C0300081865
:1009EE0068808068180820302C03032C30200838CB
:1009FE00C800C83808000000203F20000000100882
:100A0E000808C838080020382621202018000000C9
:100A1E0000FE020202000000007F40404000000C79
:100A2E0030C000000000000000010638C0000002C7
:100A3E000202FE000000004040407F000000000067
:100A4E00040202020400000000000000000000008A
:100A5E000000000000008080808080808080000286
:100A6E000204000000000000000000000000000072
:100A7E008080808000000019242222223F2008F866
:100A8E00008080000000003F112020110E000000A9
:100A9E00008080800000000E112020201100000038
:100AAE0000808088F800000E112020103F200000EA
:100ABE00808080800000001F2222222213000080EE
:100ACE0080F0888888180020203F20200000000039
:100ADE00808080808000006B94949493600008F86E
:100AEE00008080800000203F210000203F200080F9
:100AFE009898000000000020203F202000000000F9
:100B0E0000809898000000C08080807F000008F868
:100B1E00000080808000203F24022D30200000083D
:100B2E0008F8000000000020203F202000008080F8
:100B3E00808080808000203F20003F20003F80800A
:100B4E00008080800000203F210000203F20000018
:100B5E00808080800000001F202020201F008080C9
:100B6E0000808000000080FFA12020110E000000F8
:100B7E00008080808000000E112020A0FF808080E9
:100B8E0080008080800020203F2120000100000096
:100B9E00808080808000003324242424190000806B
:100BAE0080E0808000000000001F20200000808078
:100BBE00000000808000001F202020103F20808039
:100BCE0080000080808000010E30080601008080C9
:100BDE000080008080800F300C030C300F000080EE
:100BEE008000808080000020312E0E312000808019
:100BFE0080000080808080818E7018060100008049
:100C0E008080808080000021302C22213000000066
:100C1E000000807C020200000000003F4040000007
:100C2E000000FF00000000000000FF0000000002B6
:100C3E00027C800000000040403F000000000006E3
:100C4E000101020204040000000000000000000385
:100C5E00050911FF118905C300E000F000F800003E
:100C6E0000000000004428FF11AA4400000000000C
:100C7E000000000000000000000000000000000066
:100C8E000000000000000000000000000000000056
:100C9E000000000000000000000000000000000046
:100CAE00000000000000000083013844829292741C
:100CBE000183000000000000007C44C7017D7D7DA3
:100CCE007D017D7D7D7D017D7D7D7D01FF000000AF
:100CDE000000000100010001000100010001000000
:100CEE0000000000000000010100000000000000F4
:100CFE0000000000000000000000000000000000E6
:100D0E0000000000000000000000000000000000D5
:100D1E0000000000000000000000000000000000C5
:100D2E0000000000000000000101000000000000B3
:100D3E00010100000000000000000001010101019E
:100D4E000101010101010101010101010100000088
:100D5E0000000000000000404040404000006D6D6B
:100D6E006D6D6D000060606060600000404040404E
:100D7E004000000000000000000000000000000025
:100D8E000000000000000000000000000000000055
:100D9E000000000000000000000000000000000045
:100DAE000000000000000000000000000000000035
:100DBE000000000000000000000000000000000025
:100DCE000000000000000000000000000000000015
:100DDE0000000000000000DBDBDBDBDB0000DBDB08
:100DEE00DBDBDB0000DBDBDBDBDB0000DBDBDBDBB1
:100DFE00DB0000DADADADADA0000D8D8D8D8D80090
:100E0E0000C0C0C0C0C00000C0C0C0C0C00000C094
:100E1E00C0C0C0C00000C0C0C0C0C0000080808084
:100E2E0080800000000000000000000000000000B4
:100E3E0000000000000000000000000000000000A4
:100E4E000000000000000000000000000000000094
:100E5E00000000000000000606060606000006065A
:100E6E00060606000006060606060000060606062C
:100E7E00060000060606E666200006068606060042
:100E8E000006060606860000060606060600008612
:100E9E008686868680808686068686C0C0868686FC
:100EAE000606D0307606060606000006060606067C
:100EBE0000000606060606000006060606060000E8
:100ECE0006060606060000000000000000000000F6
:100EDE000000000000000000000000000000000004
:100EEE0000000000000000000000000000000000F4
:100EFE000000000000000000601C00FE0001020067
:100F0E00C41820029E63B20E00FF8181FF00008094
:100F1E0040300F00000000FF0023EAAABFAAEA0338
:100F2E003F00FF0000000000000000000000000075
:100F3E0000000000000000000000000000000000A3
:100F4E000000000000000000000000000000000093
:100F5E000080808000000000008080800000000083
:100F6E000000000000000000000000000000000073
:100F7E000000000000000E0C08000001010101013C
:100F8E0000000001000000010081808081808180CE
:100F9E0080808001010101000000010000000100BD
:100FAE000101090C0E00000000000000000000000E
:100FBE00000000000000C0C0C0C0C0C0C0C0C0C0A3
:100FCE00C0C0C0C0C0C0C0C0C0C0C0C0C000001E35
:100FDE0021404050215E001E21404050215E000005
:100FEE0000000000000000000000000000000000F3
:100FFE0000000000000000000000000000000000E3
:10100E00000000000000000000FFFFC1C1FFFFC193
:10101E00C1FFFF0000000000000000000000000003
:10102E0000000000000000000000000000000000B2
:10103E00000000000000FFFF80FCF3EFF3FC80FFD8
:10104E0080EEEEEEF5FBFF9CBEB6B688FF00000309
:10105E00050911FF118905C300E000F000F800003A
:10106E0000000000004428FF11AA44000000000008
:10107E000000000000000000000000000000000062
:10108E000000000000000000000000000000000052
:10109E000000000000000000000000000000000042
:1010AE000000000000000000830138448292927418
:1010BE000183000000000000007C44FF017D7D7D67
:1010CE007D017D7D7D7D017D7D7D7D01FF000000AB
:1010DE0000000001000100010001000100010000FC
:1010EE0000000000000000010100000000000000F0
:1010FE0000000000000000000000000000000000E2
:10110E0000000000000000000000000000000000D1
:10111E0000000000000000000000000000000000C1
:10112E0000000000000000000101000000000000AF
:10113E00010100000000000000000001010101019A
:10114E000101010101010101010101010100000084
:10115E000000000000000000000000000000000081
:10116E0000000000000000000000000000F8080869
:10117E00080808080800F818608000000080601851
:10118E00F80000002020F8000000000000E0100829
:10119E0008080810E00000002020F8000000000001
:1011AE000000000000000008080808088868180001
:1011BE000000000000000000000000000000000021
:1011CE000000000000000000000000000000000011
:1011DE000000000000000000000000000000000001
:1011EE00000000000000000000000000007F010170
:1011FE000101010100007F00000106180601000038
:10120E007F00000040407F4040000000001F204053
:10121E00404040201F00000040407F404000000042
:10122E0000006000000000000060180601000000D1
:10123E0000000000000000000000000000000000A0
:10124E000000000000000000000000000000000090
:10125E000000000000000000000000000000000080
:10126E000000000000000000000000000000000070
:10127E0000000040202020C00000E0202020E000E0
:10128E00000040E00000000060202020E000000090
:10129E000000E0202020E000000000004020202080
:1012AE00C0000040202020C0000000000000000010
:1012BE000000000000000000000000000000000020
:1012CE000000000000000000000000000000000010
:1012DE000000000000000000000000000000000000
:1012EE0000000000000000000000000000000000F0
:1012FE000000000C0A0A090C00000F0808080F0075
:10130E000000080F080000000C0809090E00000C70
:10131E0000000F0909090F00000C00000C0A0A0951
:10132E000C00000C0A0A090C00000000000000006E
:10133E00000000000000000000000000000000009F
:10134E00000000000000000000000000000000008F
:10135E00000000000000000000000000000000007F
:10136E00000000000000000000000000000000006F
:10137E00000000000000000000000000000000005F
:10138E00000000000000000000008080808080804F
:10139E00808000000000000000000000000000003F
:1013AE00000000000000000000000000000000002F
:1013BE00000000000000000000000000000000001F
:1013CE000000000000000000000000000000007F90
:1013DE00030C300C037F00003854545800007C047A
:1013EE00047800003C40407C00000000000000003B
:1013FE0000000000000000000000000000000000DF
:10140E0000000000000000000000FFAAAAAA2808A1
:10141E0000FF0000000000000000000000000000BF
:10142E0000000000000000000000000000000000AE
:10143E00000000000000007F030C300C037F000052
:0E144E00264949493200007F020408107F0041
:082DA7007F0C7EA8DEFEDFFCBC
:012DAF002201
:102C06007FE07E2E7DA87C00ED1D70011C144C70AB
:0A2C1600F7EF1F70011E144E70EE60
:012C20002291
:102D2100AD07AC06ED1DAE0470011C4E6005122D01
:042D3100A780F12264
:092DB000D2A6D2A5C2A5C2A6223A
:092DB900C2A6C2A5D2A6D2A52231
:072AA900AD07122DB07F788C
:102AB000E4FEEF30E704D2A58002C2A5D2A6C2A6EA
:0E2AC000EF25E0FF0EBE08EAD2A5D2A6C2A600
:012ACE0022E5
:102A030075F010A42CF582E435F0F583E582246C8F
:0B2A1300F582E5833406F583E493FFB1
:102A1E00122AA97F40122AB0AF05122AB0022DB990
:102D7000122AA9E4FF122AB0AF05122AB0022DB917
:102BCB00AC07ED24B0FF122D70EC54F0C4540F443D
:0E2BDB0010FF122D70EC540F4401FF022D70FC
:022B1B00AC0705
:102B1D00E4FBEB24B0FF122D707F01122D707F109E
:102B2D00122D70E4FAAF04122A1E0ABA80F70BBBFD
:022B3D0008E0AE
:012B3F002273
:1021A4007FAE122D70E4FF122D707F10122D707F00
:1021B40040122D707F81122D707FCF122D707FA160
:1021C400122D707FC8122D707FA6122D707FA81259
:1021D4002D707F3F122D707FD3122D70E4FF122DCE
:1021E400707FD5122D707F80122D707FD9122D70C3
:1021F4007FF1122D707FDA122D707F12122D707FF5
:10220400DB122D707F40122D707F20122D707F0203
:10221400122D707F8D122D707F14122D707FA412D9
:102224002D707FA6122D707FAF122D70E4FF122B3C
:102234001BE4FDFF122BCB7BFF7A00790EE4FDFC3F
:10224400FF12262E7A00791F7D021226287A007941
:102254002A7D041226287BFF7A0079387D0612260F
:0D2264002A7F207E03122D21E4FF022B1B98
:062778008C428D43AA070C
:10277E00E4FCF544EB24E0F9EAD3947E400AE4FA53
:10278E000543E54370020542AF02AD43122BCBE485
:10279E00FCE9122A030CBC08F8AF02E54304FD1253
:1027AE002BCBE4FC75F010E9A42CF582E435F0F5A2
:1027BE0083E5822474F582E5833406122A190CBC53
:0227CE0008E21F
:0127D00022E6
:082919008B42AA078D828C831A
:10292100E4FCF543EAD3947E4003E4FAA3AF02AD9D
:1029310082122BCBE4FCE4FF122A1E0CBC08F7AF79
:1029410002AE82EE04FD122BCBE4FCE4FF122A1E40
:042951000CBC08F7BB
:01295500225F
:062628007BFF7C00E4FFD3
:0C262E008F338C348D358B368A37893819
:10263A00E4F539FCF53AAB36AA37A938853A8275FA
:10264A008300121745605D24E0F539E533D39478A9
:10265A00400BE4F5330535E53570020534AD35AF89
:10266A0033122BCBE4FCE539122A030CBC08F7E53C
:10267A003504FDAF33122BCBE4FC75F010E539A419
:10268A002CF582E435F0F583E5822474F582E5833E
:10269A003406122A190CBC08E174082533F53305EF
:0426AA003A0226408A
:0126AE002209
:0C2331008F2F8C308D318B328A33893431
:10233D00E4F535FCF536AB32AA33A9348536827512
:10234D00830012174570030223D624E0F535E52FDF
:10235D00D39478400BE4F52F0531E531700205304B
:10236D00AD31AF2F122BCBE4FC75F010E535A42C5D
:10237D00F582E435F0F583E582246CF582E583344E
:10238D0006F583E493F4FF122A1E0CBC08DBE5313D
:10239D0004FDAF2F122BCBE4FC75F010E535A42C0A
:1023AD00F582E435F0F583E5822474F582E5833416
:1023BD0006F583E493F4FF122A1E0CBC08DB7408A7
:0923CD00252FF52F0536022343EC
:0123D60022E4
:082477008F338D348A358B365A
:10247F00753903753AE8E4F53B85333C85343D8582
:10248F00353E85363F853940853A41F538AC39AD13
:10249F003AAE35AF361217A6EF4E6003753B01E526
:1024AF003B601FEF2430FBE534FD7C00AF33122778
:1024BF0078AE35AF36AC39AD3A1217A68C358D36AE
:1024CF00800CE534FD7C00E4FBAF3312291974084E
:1024DF002533F533AE39AF3A7C007D0A1217A68E3D
:1024EF00398F3A0538E538C3940440A1E537B40174
:0D24FF000CE534FD7C007B25AF33122778FF
:01250C0022AC
:1026AF00E4FBFAF52FF530EF24FE601014601414DC
:1026BF0060182403701FE4F9F5308019E4F97530C0
:1026CF0002800CE4F97530048005E4F9753006FFDB
:1026DF00AD30122BCBE9C39480502DAF01AD30122A
:1026EF002BCBE4FBE4FF122A1E0BBB08F7AF01E56F
:1026FF003004FD122BCBE4FBE4FF122A1E0BBB08A8
:08270F00F7740829F90A80CDD6
:01271700229F
:102BE900EF4488F5BC000000000000E5BC30E4FBC0
:0C2BF90053BCEFAFBDEF70027F017E0007
:012C050022AC
:0F2D8000759DFFE4F5BD75BC807F02FE022C211E
:102C2100EF1FAA0670011E4A60107C137D88ED1DFE
:0A2C3100AA0470011C4A60E880F458
:012C3B002276
:0A1C6C008C488D498B458A46894754
:101C76001217FBFDACF0E41216728F4D8E4C8D4B95
:101C86008C4AAB45AA46A9471217FBFDACF0E412F5
:101C960016728F518E508D4F8C4EE4F555F554F5D6
:101CA60053F552F556C3E5569549E4954840030267
:101CB6001DA7AB55AA54A953A852C000C001C00223
:101CC600C003AB45AA46A94775F002E556A4F582BE
:101CD60085F083121826FDACF0E4121672D003D0FC
:101CE60002D001D0001214638F558E548D538C523E
:101CF600AB45AA46A94775F002E556A4F58285F0DC
:101D060083121826FDACF0E4121672AB4DAA4CA94C
:101D16004BA84A1215F4501DAB45AA46A94775F0C3
:101D260002E556A4F58285F083121826FDACF0E490
:101D36001216728008AF4DAE4CAD4BAC4A8F4D8E2D
:101D46004C8D4B8C4AAB45AA46A94775F002E55621
:101D5600A4F58285F083121826FDACF0E412167203
:101D6600AB51AA50A94FA84E1215F4601F401DABE7
:101D760045AA46A94775F002E556A4F58285F08383
:101D8600121826FDACF0E41216728008AF51AE5060
:101D9600AD4FAC4E8F518E508D4F8C4E0556021C5A
:101DA600ABAB4DAA4CA94BA84AAF55AE54AD53ACFC
:101DB6005212145FAB51AA50A94FA84E12145FC01D
:101DC60004C005C006C007E54924FEFDE54834FF0A
:101DD600FCE4121672A804A905AA06AB07D007D020
:0B1DE60006D005D0041215571216ABF2
:011DF10022CF
:102D5D0053877F759850438E04759CD9438E0143DC
:032D6D008E1022A3
:0A27D10001630001620102640005CB
:102B4000122D5D1221A4122D80122DE0122CF17D88
:102B5000017F09122A817B007A00796D12282812E0
:042B6000227180FB63
:10227100E4F52C122ACF8F2CE52C14603824FE6053
:102281001614602224027040E56375F008A424D876
:10229100F582E43423802BE56375F008A424D9F595
:1022A10082E43423801CE56375F008A424DBF58205
:1022B100E43423800DE56375F008A424DAF582E4A3
:1022C1003423F583E493F563E56365626029E5638F
:1022D10075F008A424DCF582E43423F583E493FB50
:1022E100740193FA740293F98B668A67F5688563C2
:1022F1006212186C022274E5636003022274E563C2
:1023010065626003022274E56375F008A424DCF5BC
:1023110082E43423F583E493FB740193FA7402930A
:10232100F98B668A67F56885636212186C022274FC
:1027DB00202408010000000000FF0003010000009E
:1027EB000000FF2DCB010000000000FF2DD10100E8
:0727FB0000000000FF2DD7D4
:06000300E5B05404FF22E9
:062DCB00E5B05408FF22F0
:062DD100E5B05410FF22E2
:062DD700E5B05420FF22CC
:10287A00E4F534E53475F009A42408F8E66037E590
:10288A003475F009A4240EF808E6FA08E6F91218D5
:10289A006CE53475F009A4240BF8E6B5070DE534A8
:1028AA0075F009A4240AF87601800BE53475F0095D
:0F28BA00A4240AF8E4F60534E534C3940440B4CA
:0128C90022EC
:1020BB0012287AE4F533E53375F009A4240CF8E61D
:1020CB0014602924FD606724046003022197E53323
:1020DB0075F009A4240AF8E6B4010EE53375F0098E
:1020EB00A4240CF8760102218C02218CE53375F0C7
:1020FB0009A4240AF8E6B40120E53375F009A424F9
:10210B000CF87604E53375F009A4240DF87604E594
:10211B003375F009A424098070E53375F009A42404
:10212B000CF8E4F6E53375F009A4240D805BE53378
:10213B0075F009A4240AF8E6FF64016015E5337510
:10214B00F009A4240CF8E4F6E53375F009A4240D8A
:10215B008037EF6401702AE53375F009A4240EF87B
:10216B0008E6FA08E6F912186CEF60EBE53375F048
:10217B0009A4240CF8E4F6E53375F009A4240D80CA
:10218B0008E53375F009A4240DF8E4F60533E533BF
:08219B00C3940450030220C1AB
:0121A3002219
:102ACF001220BBE50DB404037F0122E516B4040305
:102ADF007F0222E51FB404037F0322E528B4040319
:062AEF007F04227F00229B
:0D2D8F00E4F5C7F5C5F5C675C380F5C4228F
:102C3C00C2AF75C78175C5018FC48EC375C65A7571
:0A2C4C00C6A500AFC2122D8FD2AF53
:012C5600225B
:102C8D00C2AF75C78175C5028FC48EC38DC275C69F
:0A2C9D005A75C6A500D2AF022D8FB4
:102D350075C78175C5038FC48EC375C65A75C6A57B
:042D450000022D8FCC
:102B64007F647E00122C3CEF1217727F65122C3C9E
:102B7400900001EF1217847F66122C3C900002EF44
:032B8400021784B1
:102AF5007F0A7E00122D3512172CFD7F64122C8D56
:102B0500900001121745FD0F122C8D90000212172F
:062B150045FD0F022C8DAE
:102828008B2C8A2D892E7F587E02122C3CEF645AFD
:1028380060377F0A7E00122D357F587E02122D35B3
:102848007D5A122C8DAB2CAA2DA92E740A12177240
:10285800AB2CAA2DA92E90000174031217849000A6
:10286800027432121784122AF5AB2CAA2DA92E0253
:022878002B64CF
:032802000173015E
:032DDD00000022D1
:0A2D9C0000007F0C7EA8DEFEDFFCC5
:012DA600220A
:0B2C57007E00122C62C2A07F057E00F0
:102C6200EF1FAC0670011E4C6005122DDD80F122B3
:042CD9007F027E00F8
:102CDD00AD07AC06ED1DAE0470011C4E6005122D46
:042CED009C80F122B4
:102CA700E573B40109D2A0122C5ED2A18007D2A28B
:092CB700122C5ED2A3122C5E2245
:102B8700E573B4010FD2A1D2A0122C5EC2A1122C00
:102B97005EC2A022D2A3D2A2122C5EC2A3122C5EC6
:032BA700C2A222A5
:102BAA00E573B4010DC2A0C2A1122C5ED2A0D2A1BB
:102BBA00800BC2A2C2A3122C5ED2A2D2A3122C5E96
:012BCA0022E8
:08295600122B877FA412271841
:10295E00E573B40117D2A0122CD930A10BE535C303
:10296E0094FA5004053580F2C2A08015D2A2122C22
:10297E00D930A30BE535C394FA5004053580F2C265
:04298E00A2122CD98C
:012992002222
:02271800AB070D
:10271A00E57364017026FD122C5CEB30E704D2A14C
:10272A008002C2A1122C5ED2A0EB25E0FB7F0A1226
:10273A002C570DBD08E1D2A1D2A0802EE4FDC2A281
:10274A00122C5EEB30E704D2A38002C2A3122C5EE5
:10275A00D2A2EB25E0FB7F0A7E00122C62C2A212F3
:0D276A002C5E0DBD08D8D2A3D2A2122C5EA9
:01277700223F
:1028CA00E4FBE57364017020D2A1FD122C5CD2A056
:1028DA00122C5EEB25E0FBA2A1E43342037F051232
:1028EA002C570DBD08E58024D2A3E4FDC2A2122C08
:1028FA005ED2A2122C5EEB25E0FBA2A3E4334203D4
:0E290A00122C5EC2A2122C5E0DBD08E0AF03BF
:01291800229C
:032DE000022CA71B
:102A8100AA05A907122956AF0112271812295E7F3C
:102A91001E7E00122C62AF0212271812295E122B21
:082AA100AA7F0A7E00022CDD71
:022A2E00AA07F5
:102A3000122956AF0212271812295E7F1E7E00123D
:102A40002C62122B877FA512271812295E1228CA22
:072A5000AD07122BAAAF0530
:012A5700225C
:02299300A90792
:10299500E4F533F534E970057573018006B9012353
:1029A5007573027F04122A2E7533008F34E5347552
:1029B5003400F5337F05122A2EEF2534F534E4353E
:0729C50033F533AE33AF34EC
:0129CC0022E8
:102A5800D3EF9DEE9C400A8E838F82AA04AB05803B
:102A6800088C838D82AA06AB07C3E5829BFFE583AA
:082A78009AFE4F7003FE7F017E
:012A80002233
:10280500015D00015800016000015C0001570001F5
:0B2815005B00015A00015F0001590048
:102CF100538E7F5389F0758AB0758C3CC28DE4F593
:082D01005DD2A9D2AFD28C22F1
:03000B000229CDFA
:1029CD00C0E0C0D0055DE55D64647025F55DE55B37
:1029DD007003755B01E557B40102055CE559B4015F
:1029ED0002055FE560C394055004056080037558CA
:0629FD0001D0D0D0E03251
:1023D7000000000000FF1A710103020400FF1872D9
:1023E7000203010500FF00090302010600FF000ABE
:1023F7000403030001FF1DF20504040002FF1FD0C0
:102407000603030003FF1EE10000000000000000B8
:1024170000000000000000000000000000000000B5
:1024270000000000000000000000000000000000A5
:102437000000000000000000000000000000000095
:102447000000000000000000000000000000000085
:102457000000000000000000000000000000000075
:102467000000000000000000000000000000000065
:10250D0050726573733A0044697374616E3A004991
:10251D0032433A004144433A00312E5365745072B0
:10252D006573734C696D697400322E53657444691B
:10253D007374616E4C696D697400332E5365744408
:10254D0069736469664C696D697400656E74657252
:10255D00006573630053657474696E67005072652E
:10256D0073737572653A006F6B0053617665204F1A
:10257D004B210044697374616E63653A004469735D
:0F258D0074446966663A004469666665723A008E
:0728200002710000017000CD
:082DC2007F0C7EA8DEFEDFFCA1
:012DCA0022E6
:102C72007F327E007DA87C00ED1D70011C144C701B
:0A2C8200F7EF1F70011E144E70EEF4
:012C8C002225
:042D09007FF47E01D4
:102D0D00AD07AC06ED1DAE0470011C4E6005122D15
:042D1D00C280F1225D
:022CC000AB0760
:102CC2007A0AC2B0EBFF7E00122D0DD2B0EBFF7E6E
:062CD20000122D0DDAECEA
:012CD80022D9
:102D4900E4FF122ACFBF0109756301E4F5627F012F
:032D5900227F00D6
:012D5C002254
:101A7100E4FF122B1B7BFF7A25790DE4FDFCFF129D
:101A8100262E7BFF7A2579147D027C00E4FF122645
:101A91002E7BFF7A25791C7D047C00E4FF12262E23
:101AA1007BFF7A2579217D067C00E4FF12262E7BBF
:101AB100007A00796D122B64E56DFB7A00753701B0
:101AC100E4FD7F28122477E56EFB7A00E4F5377D8B
:101AD100027F28021C65122D49EF6003021C6BE492
:101AE100FF1229938E2D8F2E7F011229938E2F8F16
:101AF10030AD30AC2FAF2EAE2D122A588E318F3231
:101B0100D3E532956EE531940040307F01122BE927
:101B1100C006C007E4FF122BE9D0E02FFFD0E03E62
:101B2100FED3EF940AEE94004011755701E55CD3A2
:101B3100940A40507F14122CC08044D3E530952E76
:101B4100E52F952D4039E530952EFFE52F952DFE9A
:101B5100D3EF956FEE940040267F01122BE9C0066A
:101B6100C007E4FF122BE9D0E02FFFD0E03EFED307
:101B7100EF940AEE940040077F14122CC08005E414
:101B8100F557F55CE55B64016003021C3E0572E5F7
:101B91007270020571E4FF122BE98F5E7F01122B37
:101BA100E98F61E55EFB7A00E4F5377D067F1E1261
:101BB1002477E561FB7A00E4F5377D067F50122436
:101BC10077AF5E7E00AD617C00122A588E6B8F6C00
:101BD100753701AB6CAA6BE4FD7F50122477E55E8B
:101BE100C3940A5018E561C3940A50110570E57059
:101BF1009428400CE4F571F572F5708003E4F570FA
:101C0100D3E56C956DE56B94004011755901E55F65
:101C1100D39403400C7F64122CC08000E4F55FF57F
:101C210059D3E5729478E5719400400EC2B0122C3C
:101C310072D2B0E4F571F572F570E4F55BE4F53755
:101C4100AB32AA317D027F50122477E4F537AB2EF7
:101C5100AA2D7D047F1E122477E4F537AB30AA2F1D
:0A1C61007D047F50122477021AD789
:011C6B002256
:10187200E4F52D752E01FF122B1B7BFF7A257926AD
:10188200E4FDFCFF1223317BFF7A2579367D027C51
:1018920000E4FF12262E7BFF7A2579477D047C0027
:1018A200E4FF12262E7BFF7A2579587D067C00E420
:1018B200FF12262E7BFF7A25795E7D067C007F64EF
:1018C20012262E122ACF8F2DE52D640260030219F3
:1018D20085E52E640170537F011226AF7BFF7A25C6
:1018E2007926E4FDFCFF12262E7BFF7A2579367DD0
:1018F200027C00E4FF1223317BFF7A2579477D04C5
:101902007C00E4FF12262E7BFF7A2579587D067C27
:1019120000E4FF12262E7BFF7A25795E7D067C008D
:101922007F6412262E752E028099E52EB402947FD2
:10193200021226AF7BFF7A257926E4FDFCFF1226F0
:101942002E7BFF7A2579367D027C00E4FF12262E5B
:101952007BFF7A2579477D047C00E4FF1223317BEB
:10196200FF7A2579587D067C00E4FF12262E7BFF44
:101972007A25795E7D067C007F6412262E752E0301
:101982000218C5E52D64036003021A42E52E6403C2
:1019920070517F031226AF7BFF7A257926E4FDFC86
:1019A200FF12262E7BFF7A2579367D027C00E4FF2A
:1019B2001223317BFF7A2579477D047C00E4FF12F4
:1019C200262E7BFF7A2579587D067C00E4FF1226BD
:1019D2002E7BFF7A25795E7D067C007F6412262E9F
:1019E200752E02E52E640260030218C57F031226DB
:1019F200AF7BFF7A257926E4FDFCFF1223317BFFC2
:101A02007A2579367D027C00E4FF12262E7BFF7A4E
:101A12002579477D047C00E4FF12262E7BFF7A2580
:101A220079587D067C00E4FF12262E7BFF7A257909
:101A32005E7D067C007F6412262E752E010218C57B
:101A4200E52DB40406E4F563F56222E52D64016038
:101A5200030218C5E52EB40105756304800DE52E59
:0E1A6200B402057563058003756306E4F56242
:011A70002253
:0100090022D4
:01000A0022D3
:101DF200E4F52DFF122B1B7BFF7A257962E4FDFCB3
:101E02007F2812262E7BFF7A25796A7D027C00E4E8
:101E1200FF12262E7B007A00796D122B64805712F6
:101E22002ACF8F2DE52D640270247405256DF56D82
:101E3200D394464003756D0A7F021226AF7BFF7A68
:101E420025796A7D027C00E4FF12262E8028E52D8A
:101E52006403705274FB256DF56DC3940A500375CB
:101E62006D467F021226AF7BFF7A25796A7D027C5E
:101E720000E4FF12262EE56DFB7A007537017D0224
:101E82007F501224777BFF7A2579747D067C00E4EB
:101E9200FF12262E7BFF7A25795E7D067C007F6409
:101EA20012262E021E21E52DB40407756301E4F506
:101EB2006222E52D64016003021E21FB7A00796D26
:101EC200122AF5E4FF122B1B7BFF7A257977E4FDBA
:0E1ED200FC7F2812262E122D09E4F563F5621E
:011EE00022DF
:101FD000E4F52DFF122B1B7BFF7A257962E4FDFCD3
:101FE0007F2812262E7BFF7A2579807D027C00E4F3
:101FF000FF12262E7B007A00796D122B648053121B
:102000002ACF8F2DE52D64027022056EE56ED394E4
:102010000C4003756E037F021226AF7BFF7A257991
:10202000807D027C00E4FF12262E8026E52D6403CD
:102030007050156EE56EC394015003756E0C7F02EF
:102040001226AF7BFF7A2579807D027C00E4FF12A7
:10205000262EE56EFB7A00E4F5377D027F501224D0
:10206000777BFF7A2579747D067C00E4FF12262EAB
:102070007BFF7A25795E7D067C007F6412262E0226
:102080001FFFE52DB40407756301E4F56222E52D19
:1020900064016003021FFFFB7A00796D122AF5E4E8
:1020A000FF122B1B7BFF7A257977E4FDFC7F28123A
:0A20B000262E122D09E4F563F562F7
:0120BA002203
:101EE100E4F52DFF122B1B7BFF7A257962E4FDFCC3
:101EF1007F2812262E7BFF7A25798A7D027C00E4D9
:101F0100FF12262E7B007A00796D122B6480571206
:101F11002ACF8F2DE52D64027024740A256FF56F89
:101F2100D394F04003E4F56F7F021226AF7BFF7A72
:101F31002579947D027C00E4FF12262E8028E52D70
:101F41006403705274F6256FF56FC3940A500375DC
:101F51006FF07F021226AF7BFF7A2579947D027C98
:101F610000E4FF12262EE56FFB7A00E4F5377D02CF
:101F71007F501224777BFF7A2579747D067C00E4FB
:101F8100FF12262E7BFF7A25795E7D067C007F6419
:101F910012262E021F10E52DB40407756301E4F526
:101FA1006222E52D64016003021F10FB7A00796D46
:101FB100122AF5E4FF122B1B7BFF7A257977E4FDCA
:0E1FC100FC7F2812262E122D09E4F563F5622E
:011FCF0022EF
:10145C00021717E86480F8E933E83360110460F090
:10146C00ED33EC337009E8FCE9FDEAFEEBFF2204F6
:10147C0060DED3EB9FEA9EE99DE8C2E78CF0C2F7F1
:10148C0095F0400CE8CCF8E9CDF9EACEFAEBCFFBBD
:10149C001216E285D0F05804700320D5B3E804701E
:1014AC00075002B2D502172192D5EC0460F7E4CCB8
:1014BC00C0E0C398F8603B94186008400DD0E0FB86
:1014CC000216F9E4FBFAC9FC8028E830E406E4C90A
:1014DC00FBE4CAFCE830E305E4C9CACBFCE85407DA
:1014EC006010F8C3E913F9EA13FAEB13FBEC13FCE5
:1014FC00D8F130F52FC3E49CFCEF9BFFEE9AFEED88
:10150C0099FDD0E0FBEF4E4D4C701222DB0302171D
:10151C001EEC2CFCEF33FFEE33FEED33FDED30E72C
:10152C00EB0216F9EF2BFFEE3AFEED39FDD0E0FBA6
:10153C0050130BBB0003021721ED13FDEE13FEEF4E
:08154C0013FFEC13FC0216F979
:10155400021721EC5D046005E859047003021717B3
:101564001216E2580460F6EC4860F2EC7004FDFEDA
:10157400FF22C860DB2481C85009C398600250066A
:1015840002171E9850CAF582E9294B4A7005AB82AE
:1015940002170D75F0007C1A7880C3EF9BEE9AED6C
:1015A40099400DC3EF9BFFEE9AFEED99FDE842F0E2
:1015B400DC23ACF0D0E0FFD0E0FED0E0FDAB822035
:1015C400E7101BEB60BAEC2CFCEF33FFEE33FEEDBF
:1015D40033FD0216F9E803F830E705C0F075F000B2
:1015E400EF2FFFEE33FEED33FD40B830E7C280AAA3
:1015F40074F8CC6480CCC86480C8F58204604FC39E
:10160400EB9FF5F0EA9E42F0E99D42F0E89C45F03C
:10161400603C501DE5825FFFE582D313CB5BCBF4C6
:101624002B5582FB50280ABA002409B900200880EF
:101634001DE5825BFBE582D313CF5FCFF4C3132F89
:101644005582FF50090EBE00050DBD00010CC3EB11
:101654009FF5F0EA9E42F0E99D42F0E89C45F06077
:0916640007CC4820E701B3EC2299
:10166D0075F020800E75F010800575F0087D007EF8
:10167D00007F003392D530D50312185EEC33401045
:10168D00EF33FFEE33FEED33FDEC33FCD5F0ED2201
:0E169D00E5F0247EA2D513CC92E7CDCEFF223D
:1016AB00EDD2E7CD33EC3392D524814006E4FFFE37
:1016BB00FDFC22FCE4CFCECDCC24E0501174FF8096
:1016CB00EDC3CC13CCCD13CDCE13CECF13CF047033
:0716DB00F030D5DE02185EBD
:1016E200E9D2E7C933E833F892D5EDD2E7CD33EC4E
:0716F20033FC5002B2D522C7
:1016F900EC30E7100FBF000C0EBE00080DBD000452
:101709000BEB6014A2D5EB13FCED92E7FD2274FFFD
:10171900FCFDFEFF22E480F8A2D574FF13FC7D8056
:03172900E480EF6A
:0300000002259C3A
:0C259C00787FE4F6D8FD7581730225E31A
:10172C00BB010689828A83E0225002E722BBFE02BB
:09173C00E32289828A83E49322EE
:10174500BB010CE58229F582E5833AF583E0225059
:1017550006E92582F8E622BBFE06E92582F8E222A3
:0D176500E58229F582E5833AF583E49322BD
:10177200BB010689828A83F0225002F722BBFE0156
:02178200F32250
:10178400F8BB010DE58229F582E5833AF583E8F09B
:10179400225006E92582C8F622BBFE05E92582C847
:0217A400F2222F
:1017A600BC000BBE0029EF8DF084FFADF022E4CC27
:1017B600F875F008EF2FFFEE33FEEC33FCEE9DECF0
:1017C600984005FCEE9DFE0FD5F0E9E4CEFD22ED36
:1017D600F8F5F0EE8420D21CFEADF075F008EF2F80
:1017E600FFED33FD4007985006D5F0F222C398FD71
:0517F6000FD5F0EA220E
:1017FB00BB010A89828A83E0F5F0A3E022500687B9
:10180B00F009E71922BBFE07E3F5F009E31922897A
:0B181B00828A83E493F5F074019322AD
:10182600BB0110E58229F582E5833AF583E0F5F000
:10183600A3E0225009E92582F886F008E622BBFEDD
:101846000AE92582F8E2F5F008E222E5832AF58323
:08185600E993F5F0A3E99322E8
:0E185E00C3E49FFFE49EFEE49DFDE49CFC229B
:06186C008A838982E47307
:1025A800022B40E493A3F8E493A34003F68001F2DE
:1025B80008DFF48029E493A3F85407240CC8C33334
:1025C800C4540F4420C8834004F456800146F6DF03
:1025D800E4800B01020408102040809027D1E47E9B
:1025E800019360BCA3FF543F30E509541FFEE493F8
:1025F800A360010ECF54C025E060A840B8E493A3BF
:10260800FAE493A3F8E493A3C8C582C8CAC583CAE9
:10261800F0A3C8C582C8CAC583CADFE9DEE780BEA1
:0128270000B0
:00000001FF
