:10000E004350553A535443313243354136305332CF
:10001E0000464C4153483A36304B42005352414D04
:10002E003A313238304279746500453250524F4D74
:10003E003A20314B4200000000000000000000009A
:10004E0000000000000000000000000000000000A2
:10005E00000000000000000202FAFAAAAAFFFFAA9E
:10006E00AAFAFA020200004272723A7A424B5B52CC
:10007E00626213776600203C1CFFFFB0B424243F5D
:10008E003FE4E4242420020203FFFF0001051D5972
:10009E00C1FF7F010101000000F8F8484C4F4B4AA8
:1000AE004848F8F80000000000FFFF444444444470
:1000BE004444FFFF0000202424E4E42424243010D0
:1000CE00FFFF10F0F000081C1F0B0C0D4F6E341CC0
:1000DE000F23607F3F0080C060F8FF070200FFFF24
:1000EE00E0703C1C08000000007F7F0406033F7F89
:1000FE004040407878000000000000000000000042
:10010E0000000000000000000000000000000000E1
:10011E0000000000000000000000000000000000D1
:10012E0000000000000000000000000000000000C1
:10013E0000000000000010218670007E4A4A4A4AE4
:10014E004A7E0000000002FE01407F41417F414196
:10015E007F41417F40000000FC042424FCA5A6A49E
:10016E00FC242424040080601F808042462A121240
:10017E002A2642C04000080808FF884800984828F0
:10018E000A2C48D808000242817F000040424242B9
:10019E007E424242400000504F4A48FF48484800C5
:1001AE00FC0000FF000000003F0101FF21613F0045
:1001BE000F40807F000000908CA4A4A4A5A6A4A448
:1001CE00A4A4948C04000080402018070000003F77
:1001DE00404040700000000474D4FFD47404100C2E
:1001EE00B744B40C04000042437A4342437E4B4B67
:1001FE004A4A42430100080808080808F94A4C48D0
:10020E0048C808080800404020100C030000204099
:10021E00403F0000000000202C246474ADA6E4349E
:10022E0024242C2400000024242515150DFE040D75
:10023E00171424642400000000F848484C4B4A4828
:10024E004848F8000000000000FF44444444444481
:10025E004444FF000000202424E424242420101011
:10026E00FF1010F00000081C0B080C054E24100C9B
:10027E000320403F0000080808FF884800984828DF
:10028E000A2C48D808000242817F000040424242B8
:10029E007E424242400000504F4A48FF48484800C4
:1002AE00FC0000FF000000003F0101FF21613F0044
:1002BE000F40807F00000807FAAAAEAAAAA8ACAB2E
:1002CE00AAFE0A02020008088B6A1E0A0A0A0AFE21
:1002DE000A0B08080800106001C63000101010FF4D
:1002EE001010101000000404FE01004161514D4336
:1002FE00414151E101004041CE04008040BE828266
:10030E0082BEC040400000007F20908040432C10F1
:10031E00102C43C0400020212EE40000202020207D
:10032E00FF20202020000000007F20100800000089
:10033E00FF00000000000000F848484848FF484809
:10034E004848F800000000000F040404043F444431
:10035E0044444F40700000000202020202E2120A00
:10036E00060200800000010101010141817F0101AF
:10037E000101010101000020202222E2222222E2BC
:10038E00222222202000004020100C030000003FFB
:10039E004040404070004020F80F82601E1410FF55
:1003AE001010101000000000FF000101010101FFFC
:1003BE00010101010100000000007E484848484844
:1003CE00484848CC0800000404040404040404242F
:1003DE004644201F0000849494FF94948024242487
:1003EE00FC1213120000201806FF021C0A02020261
:1003FE003F41414171001010D0FE5090001010107E
:10040E00D0FE10101000080601FF00011008044372
:10041E00807F000000009088A7A2A6BAA2F8A7A22B
:10042E00A6BAA282800000040404040C340444849E
:10043E007F04040400000000000000000000002FF4
:10044E00000000000700070000147F147F14002432
:10045E002A7F2A120062640813230036495522505F
:10046E0000000503000000001C2241000000412294
:10047E001C000014083E08140008083E080800007E
:10048E0000A0600000080808080800006060000076
:10049E00002010080402003E5149453E0000427FF4
:1004AE004000004261514946002141454B31001840
:1004BE0014127F10002745454539003C4A49493002
:1004CE0000017109050300364949493600064949BC
:1004DE00291E0000363600000000563600000008C7
:1004EE0014224100001414141414000041221408A4
:1004FE0000020151090600324959513E007C121189
:10050E00127C007F49494936003E41414122007F1D
:10051E004141221C007F49494941007F09090901D7
:10052E00003E4149497A007F0808087F0000417F5C
:10053E004100002040413F01007F08142241007F0E
:10054E0040404040007F020C027F007F0408107F75
:10055E00003E4141413E007F09090906003E4151DE
:10056E00215E007F0919294600464949493100019B
:10057E00017F0101003F4040403F001F2040201FEF
:10058E00003F4038403F00631408146300070870B2
:10059E00080700615149454300007F414100005565
:1005AE002A552A55000041417F0000040201020431
:1005BE00004040404040000001020400002054541E
:1005CE005478007F4844443800384444442000386E
:1005DE004444487F00385454541800087E090102E0
:1005EE000018A4A4A47C007F080404780000447DB5
:1005FE004000004080847D00007F102844000000F1
:10060E00417F4000007C04180478007C08040478C4
:10061E0000384444443800FC2424241800182424B0
:10062E0018FC007C080404080048545454200004AC
:10063E003F444020003C4040207C001C2040201CB9
:10064E00003C4030403C004428102844001CA0A030
:10065E00A07C004464544C4414141414141400006C
:10066E00000000000000000000000000000000007C
:10067E0000F8000000000000003330000000001001
:10068E000C06100C0600000000000000000040C028
:10069E007840C0784000043F04043F04040000701A
:1006AE0088FC08300000001820FF211E0000F00812
:1006BE00F000E018000000211C031E211E0000F0B7
:1006CE000888700000001E212324192721101016FF
:1006DE000E000000000000000000000000000000FE
:1006EE0000E018040200000000071820400000027D
:1006FE000418E000000000402018070000004040F1
:10070E0080F0804040000202010F01020200000052
:10071E0000F0000000000101011F010101000000B6
:10072E0000000000000080B070000000000000001B
:10073E0000000000000000010101010101010000A4
:10074E00000000000000003030000000000000003B
:10075E00000080601804006018060100000000E030
:10076E0010080810E000000F102020100F000010DD
:10077E0010F8000000000020203F20200000007034
:10078E00080808887000003028242221300000302C
:10079E000888884830000018202020110E00000024
:1007AE00C02010F8000000070424243F240000F8A5
:1007BE000888880808000019212020110E0000E08A
:1007CE00108888180000000F112020110E0000382C
:1007DE000808C83808000000003F00000000007044
:1007EE00880808887000001C222121221C0000E0CD
:1007FE0010080810E0000000312222110F00000046
:10080E0000C0C000000000000030300000000000FA
:10081E00008000000000000080600000000000006A
:10082E008040201008000001020408102000404003
:10083E004040404040000404040404040400000846
:10084E0010204080000000201008040201000070FB
:10085E0048080808F0000000003036010000C030E3
:10086E00C828E810E0000718272423140B00000006
:10087E00C038E0000000203C23020227382008F890
:10088E00888888700000203F202020110E00C03084
:10089E00080808083800071820202010080008F85B
:1008AE0008080810E000203F202020100F0008F854
:1008BE008888E8081000203F20202320180008F820
:1008CE008888E8081000203F200003000000C03098
:1008DE0008080838000007182020221E020008F819
:1008EE0008000008F808203F210101213F200008E0
:1008FE0008F8080800000020203F2020000000001B
:10090E000808F8080800C08080807F00000008F802
:10091E0088C028180800203F20012638200008F83B
:10092E00080000000000203F20202020300008F8A2
:10093E00F800F8F80800203F003F003F200008F8BC
:10094E0030C00008F808203F200007183F00E010D4
:10095E0008080810E0000F10202020100F0008F8E3
:10096E0008080808F000203F210101010000E010F6
:10097E0008080810E0000F18242438504F0008F81B
:10098E00888888887000203F2000030C302000707B
:10099E008808080838000038202121221C00180879
:1009AE0008F8080818000000203F2000000008F892
:1009BE0008000008F808001F202020201F000878DB
:1009CE00880000C83808000007380E010000F8083B
:1009DE0000F80008F800033C0700073C0300081865
:1009EE0068808068180820302C03032C30200838CB
:1009FE00C800C83808000000203F20000000100882
:100A0E000808C838080020382621202018000000C9
:100A1E0000FE020202000000007F40404000000C79
:100A2E0030C000000000000000010638C0000002C7
:100A3E000202FE000000004040407F000000000067
:100A4E00040202020400000000000000000000008A
:100A5E000000000000008080808080808080000286
:100A6E000204000000000000000000000000000072
:100A7E008080808000000019242222223F2008F866
:100A8E00008080000000003F112020110E000000A9
:100A9E00008080800000000E112020201100000038
:100AAE0000808088F800000E112020103F200000EA
:100ABE00808080800000001F2222222213000080EE
:100ACE0080F0888888180020203F20200000000039
:100ADE00808080808000006B94949493600008F86E
:100AEE00008080800000203F210000203F200080F9
:100AFE009898000000000020203F202000000000F9
:100B0E0000809898000000C08080807F000008F868
:100B1E00000080808000203F24022D30200000083D
:100B2E0008F8000000000020203F202000008080F8
:100B3E00808080808000203F20003F20003F80800A
:100B4E00008080800000203F210000203F20000018
:100B5E00808080800000001F202020201F008080C9
:100B6E0000808000000080FFA12020110E000000F8
:100B7E00008080808000000E112020A0FF808080E9
:100B8E0080008080800020203F2120000100000096
:100B9E00808080808000003324242424190000806B
:100BAE0080E0808000000000001F20200000808078
:100BBE00000000808000001F202020103F20808039
:100BCE0080000080808000010E30080601008080C9
:100BDE000080008080800F300C030C300F000080EE
:100BEE008000808080000020312E0E312000808019
:100BFE0080000080808080818E7018060100008049
:100C0E008080808080000021302C22213000000066
:100C1E000000807C020200000000003F4040000007
:100C2E000000FF00000000000000FF0000000002B6
:100C3E00027C800000000040403F000000000006E3
:100C4E000101020204040000000000000000000385
:100C5E00050911FF118905C300E000F000F800003E
:100C6E0000000000004428FF11AA4400000000000C
:100C7E000000000000000000000000000000000066
:100C8E000000000000000000000000000000000056
:100C9E000000000000000000000000000000000046
:100CAE00000000000000000083013844829292741C
:100CBE000183000000000000007C44C7017D7D7DA3
:100CCE007D017D7D7D7D017D7D7D7D01FF000000AF
:100CDE000000000100010001000100010001000000
:100CEE0000000000000000010100000000000000F4
:100CFE0000000000000000000000000000000000E6
:100D0E0000000000000000000000000000000000D5
:100D1E0000000000000000000000000000000000C5
:100D2E0000000000000000000101000000000000B3
:100D3E00010100000000000000000001010101019E
:100D4E000101010101010101010101010100000088
:100D5E0000000000000000404040404000006D6D6B
:100D6E006D6D6D000060606060600000404040404E
:100D7E004000000000000000000000000000000025
:100D8E000000000000000000000000000000000055
:100D9E000000000000000000000000000000000045
:100DAE000000000000000000000000000000000035
:100DBE000000000000000000000000000000000025
:100DCE000000000000000000000000000000000015
:100DDE0000000000000000DBDBDBDBDB0000DBDB08
:100DEE00DBDBDB0000DBDBDBDBDB0000DBDBDBDBB1
:100DFE00DB0000DADADADADA0000D8D8D8D8D80090
:100E0E0000C0C0C0C0C00000C0C0C0C0C00000C094
:100E1E00C0C0C0C00000C0C0C0C0C0000080808084
:100E2E0080800000000000000000000000000000B4
:100E3E0000000000000000000000000000000000A4
:100E4E000000000000000000000000000000000094
:100E5E00000000000000000606060606000006065A
:100E6E00060606000006060606060000060606062C
:100E7E00060000060606E666200006068606060042
:100E8E000006060606860000060606060600008612
:100E9E008686868680808686068686C0C0868686FC
:100EAE000606D0307606060606000006060606067C
:100EBE0000000606060606000006060606060000E8
:100ECE0006060606060000000000000000000000F6
:100EDE000000000000000000000000000000000004
:100EEE0000000000000000000000000000000000F4
:100EFE000000000000000000601C00FE0001020067
:100F0E00C41820029E63B20E00FF8181FF00008094
:100F1E0040300F00000000FF0023EAAABFAAEA0338
:100F2E003F00FF0000000000000000000000000075
:100F3E0000000000000000000000000000000000A3
:100F4E000000000000000000000000000000000093
:100F5E000080808000000000008080800000000083
:100F6E000000000000000000000000000000000073
:100F7E000000000000000E0C08000001010101013C
:100F8E0000000001000000010081808081808180CE
:100F9E0080808001010101000000010000000100BD
:100FAE000101090C0E00000000000000000000000E
:100FBE00000000000000C0C0C0C0C0C0C0C0C0C0A3
:100FCE00C0C0C0C0C0C0C0C0C0C0C0C0C000001E35
:100FDE0021404050215E001E21404050215E000005
:100FEE0000000000000000000000000000000000F3
:100FFE0000000000000000000000000000000000E3
:10100E00000000000000000000FFFFC1C1FFFFC193
:10101E00C1FFFF0000000000000000000000000003
:10102E0000000000000000000000000000000000B2
:10103E00000000000000FFFF80FCF3EFF3FC80FFD8
:10104E0080EEEEEEF5FBFF9CBEB6B688FF00000309
:10105E00050911FF118905C300E000F000F800003A
:10106E0000000000004428FF11AA44000000000008
:10107E000000000000000000000000000000000062
:10108E000000000000000000000000000000000052
:10109E000000000000000000000000000000000042
:1010AE000000000000000000830138448292927418
:1010BE000183000000000000007C44FF017D7D7D67
:1010CE007D017D7D7D7D017D7D7D7D01FF000000AB
:1010DE0000000001000100010001000100010000FC
:1010EE0000000000000000010100000000000000F0
:1010FE0000000000000000000000000000000000E2
:10110E0000000000000000000000000000000000D1
:10111E0000000000000000000000000000000000C1
:10112E0000000000000000000101000000000000AF
:10113E00010100000000000000000001010101019A
:10114E000101010101010101010101010100000084
:10115E000000000000000000000000000000000081
:10116E0000000000000000000000000000F8080869
:10117E00080808080800F818608000000080601851
:10118E00F80000002020F8000000000000E0100829
:10119E0008080810E00000002020F8000000000001
:1011AE000000000000000008080808088868180001
:1011BE000000000000000000000000000000000021
:1011CE000000000000000000000000000000000011
:1011DE000000000000000000000000000000000001
:1011EE00000000000000000000000000007F010170
:1011FE000101010100007F00000106180601000038
:10120E007F00000040407F4040000000001F204053
:10121E00404040201F00000040407F404000000042
:10122E0000006000000000000060180601000000D1
:10123E0000000000000000000000000000000000A0
:10124E000000000000000000000000000000000090
:10125E000000000000000000000000000000000080
:10126E000000000000000000000000000000000070
:10127E0000000040202020C00000E0202020E000E0
:10128E00000040E00000000060202020E000000090
:10129E000000E0202020E000000000004020202080
:1012AE00C0000040202020C0000000000000000010
:1012BE000000000000000000000000000000000020
:1012CE000000000000000000000000000000000010
:1012DE000000000000000000000000000000000000
:1012EE0000000000000000000000000000000000F0
:1012FE000000000C0A0A090C00000F0808080F0075
:10130E000000080F080000000C0809090E00000C70
:10131E0000000F0909090F00000C00000C0A0A0951
:10132E000C00000C0A0A090C00000000000000006E
:10133E00000000000000000000000000000000009F
:10134E00000000000000000000000000000000008F
:10135E00000000000000000000000000000000007F
:10136E00000000000000000000000000000000006F
:10137E00000000000000000000000000000000005F
:10138E00000000000000000000008080808080804F
:10139E00808000000000000000000000000000003F
:1013AE00000000000000000000000000000000002F
:1013BE00000000000000000000000000000000001F
:1013CE000000000000000000000000000000007F90
:1013DE00030C300C037F00003854545800007C047A
:1013EE00047800003C40407C00000000000000003B
:1013FE0000000000000000000000000000000000DF
:10140E0000000000000000000000FFAAAAAA2808A1
:10141E0000FF0000000000000000000000000000BF
:10142E0000000000000000000000000000000000AE
:10143E00000000000000007F030C300C037F000052
:0E144E00264949493200007F020408107F0041
:082B16007F0C7EA8DEFEDFFC4F
:012B1E002294
:102960007FE07E2E7DA87C00ED1D70011C144C7054
:0A297000F7EF1F70011E144E70EE09
:01297A00223A
:102A7C00AD07AC06ED1DAE0470011C4E6005122BAB
:042A8C001680F1229D
:092B1F00D2A6D2A5C2A5C2A622CD
:092B2800C2A6C2A5D2A6D2A522C4
:07284C00AD07122B1F7F787E
:10285300E4FEEF30E704D2A58002C2A5D2A6C2A649
:0E286300EF25E0FF0EBE08EAD2A5D2A6C2A65F
:012871002244
:1027A60075F010A42CF582E435F0F583E582246CEF
:0B27B600F582E5833406F583E493FF11
:1027C10012284C7F40122853AF05122853022B28A0
:102ADF0012284CE4FF122853AF05122853022B285B
:10292500AC07ED24B0FF122ADFEC54F0C4540F4479
:0E29350010FF122ADFEC540F4401FF022ADFCC
:02289800AC078B
:10289A00E4FBEB24B0FF122ADF7F01122ADF7F104C
:1028AA00122ADFE4FAAF041227C10ABA80F70BBB77
:0228BA0008E034
:0128BC0022F9
:101F72007FAE122ADFE4FF122ADF7F10122ADF7FF0
:101F820040122ADF7F81122ADF7FCF122ADF7FA150
:101F9200122ADF7FC8122ADF7FA6122ADF7FA81249
:101FA2002ADF7F3F122ADF7FD3122ADFE4FF122AC1
:101FB200DF7FD5122ADF7F80122ADF7FD9122ADF44
:101FC2007FF1122ADF7FDA122ADF7F12122ADF7FE5
:101FD200DB122ADF7F40122ADF7F20122ADF7F02F4
:101FE200122ADF7F8D122ADF7F14122ADF7FA412CA
:101FF2002ADF7FA6122ADF7FAF122ADFE4FF122830
:1020020098E4FDFF1229257BFF7A00790EE4FDFC9E
:10201200FF12236D7A00791F7D021223677A0079FD
:102022002A7D041223677BFF7A0079387D0612230A
:0D203200697F207E03122A7CE4FF022898BB
:062523008C428D43AA0763
:10252900E4FCF544EB24E0F9EAD3947E400AE4FAAA
:102539000543E54370020542AF02AD43122925E484
:10254900FCE91227A60CBC08F8AF02E54304FD120A
:102559002925E4FC75F010E9A42CF582E435F0F5A1
:1025690083E5822474F582E58334061227BC0CBC0A
:0225790008E276
:01257B00223D
:0826BC008B42AA078D828C837A
:1026C400E4FCF543EAD3947E4003E4FAA3AF02ADFD
:1026D40082122925E4FCE4FF1227C10CBC08F7AFE1
:1026E40002AE82EE04FD122925E4FCE4FF1227C1A8
:0426F4000CBC08F71B
:0126F80022BF
:062367007BFF7C00E4FF97
:0C236D008F338C348D358B368A378938DD
:10237900E4F539FCF53AAB36AA37A938853A8275BE
:102389008300121739605D24E0F539E533D3947879
:10239900400BE4F5330535E53570020534AD35AF4D
:1023A90033122925E4FCE5391227A60CBC08F7E508
:1023B9003504FDAF33122925E4FC75F010E539A485
:1023C9002CF582E435F0F583E5822474F582E58302
:1023D90034061227BC0CBC08E174082533F5330513
:0423E9003A02237F12
:0123ED0022CD
:0C20FF008F2F8C308D318B328A33893466
:10210B00E4F535FCF536AB32AA33A9348536827546
:10211B00830012173970030221A424E0F535E52F53
:10212B00D39478400BE4F52F0531E531700205307F
:10213B00AD31AF2F122925E4FC75F010E535A42C39
:10214B00F582E435F0F583E582246CF582E5833482
:10215B0006F583E493F4FF1227C10CBC08DBE531D1
:10216B0004FDAF2F122925E4FC75F010E535A42CE6
:10217B00F582E435F0F583E5822474F582E583344A
:10218B0006F583E493F4FF1227C10CBC08DB74083B
:09219B00252FF52F053602211154
:0121A4002218
:082245008F338D348A358B368E
:10224D00753903753AE8E4F53B85333C85343D85B6
:10225D00353E85363F853940853A41F538AC39AD47
:10226D003AAE35AF3612179AEF4E6003753B01E566
:10227D003B601FEF2430FBE534FD7C00AF331225AE
:10228D0023AE35AF36AC39AD3A12179A8C358D3643
:10229D00800CE534FD7C00E4FBAF331226BC7408E2
:1022AD002533F533AE39AF3A7C007D0A12179A8E7D
:1022BD00398F3A0538E538C3940440A1E537B401A8
:0D22CD000CE534FD7C007B25AF331225238A
:0122DA0022E1
:10245A00E4FBFAF52FF530EF24FE60101460141433
:10246A0060182403701FE4F9F5308019E4F9753017
:10247A0002800CE4F97530048005E4F9753006FF32
:10248A00AD30122925E9C39480502DAF01AD301229
:10249A002925E4FBE4FF1227C10BBB08F7AF01E5CE
:1024AA003004FD122925E4FBE4FF1227C10BBB0807
:0824BA00F7740829F90A80CD2E
:0124C20022F7
:10294300EF4488F5BC000000000000E5BC30E4FB68
:0C29530053BCEFAFBDEF70027F017E00AF
:01295F002255
:0F2AEF00759DFFE4F5BD75BC807F02FE02297B5B
:10297B00EF1FAA0670011E4A60107C137D88ED1DA7
:0A298B00AA0470011C4A60E880F401
:01299500221F
:0A1A1E008C488D498B458A468947A4
:101A28001217EFFDACF0E41216668F4D8E4C8D4BFD
:101A38008C4AAB45AA46A9471217EFFDACF0E41251
:101A480016668F518E508D4F8C4EE4F555F554F532
:101A580053F552F556C3E5569549E49548400302B7
:101A68001B59AB55AA54A953A852C000C001C002C3
:101A7800C003AB45AA46A94775F002E556A4F5820E
:101A880085F08312181AFDACF0E4121666D003D064
:101A980002D001D0001214638F558E548D538C528E
:101AA800AB45AA46A94775F002E556A4F58285F02C
:101AB8008312181AFDACF0E4121666AB4DAA4CA9B5
:101AC8004BA84A1215F4501DAB45AA46A94775F014
:101AD80002E556A4F58285F08312181AFDACF0E4ED
:101AE8001216668008AF4DAE4CAD4BAC4A8F4D8E8A
:101AF8004C8D4B8C4AAB45AA46A94775F002E55672
:101B0800A4F58285F08312181AFDACF0E41216666B
:101B1800AB51AA50A94FA84E1215F4601F401DAB37
:101B280045AA46A94775F002E556A4F58285F083D3
:101B380012181AFDACF0E41216668008AF51AE50C8
:101B4800AD4FAC4E8F518E508D4F8C4E0556021AAC
:101B58005DAB4DAA4CA94BA84AAF55AE54AD53AC9A
:101B68005212145FAB51AA50A94FA84E12145FC06D
:101B780004C005C006C007E54924FEFDE54834FF5A
:101B8800FCE4121666A804A905AA06AB07D007D07C
:0B1B980006D005D00412155712169F4E
:011BA300221F
:102ACC0053877F759850438E04759CD9438E014370
:032ADC008E102237
:0A257C000163000162010264000522
:1028BD00122ACC121F72122AEF122B4F122A4D7DA3
:1028CD00017F091228247B007A007970122672127A
:0428DD00203F80FB1D
:10203F00E4F52C1228728F2CE52C14603824FE60E6
:10204F001614602224027040E56375F008A424A6DC
:10205F00F582E43421802BE56375F008A424A7F5FD
:10206F0082E43421801CE56375F008A424A9F5826D
:10207F00E43421800DE56375F008A424A8F582E40B
:10208F003421F583E493F563E56365626029E563C5
:10209F0075F008A424AAF582E43421F583E493FBB8
:1020AF00740193FA740293F98B668A67F5688563F6
:1020BF0062121860022042E5636003022042E5636A
:1020CF0065626003022042E56375F008A424AAF557
:1020DF0082E43421F583E493FB740193FA74029341
:1020EF00F98B668A67F56885636212186002204271
:10258600202408010000000000FF000301000000F5
:102596000000FF2B3A010000000000FF2B40010065
:0725A60000000000FF2B46BE
:06000300E5B05404FF22E9
:062B3A00E5B05408FF2283
:062B4000E5B05410FF2275
:062B4600E5B05420FF225F
:1025D300E4F534E53475F009A42408F8E66037E53A
:1025E3003475F009A4240EF808E6FA08E6F912187F
:1025F30060E53475F009A4240BF8E6B5070DE5345E
:1026030075F009A4240AF87601800BE53475F00906
:0F261300A4240AF8E4F60534E534C3940440B473
:012622002295
:101E89001225D3E4F533E53375F009A4240CF8E6FB
:101E990014602924FD606724046003021F65E5338B
:101EA90075F009A4240AF8E6B4010EE53375F009C2
:101EB900A4240CF87601021F5A021F5AE53375F063
:101EC90009A4240AF8E6B40120E53375F009A4242D
:101ED9000CF87604E53375F009A4240DF87604E5C9
:101EE9003375F009A424098070E53375F009A42439
:101EF9000CF8E4F6E53375F009A4240D805BE533AD
:101F090075F009A4240AF8E6FF64016015E5337544
:101F1900F009A4240CF8E4F6E53375F009A4240DBE
:101F29008037EF6401702AE53375F009A4240EF8AF
:101F390008E6FA08E6F9121860EF60EBE53375F088
:101F490009A4240CF8E4F6E53375F009A4240D80FE
:101F590008E53375F009A4240DF8E4F60533E533F3
:081F6900C394045003021E8F13
:011F7100224D
:10287200121E89E50DB404037F0122E516B4040398
:102882007F0222E51FB404037F0322E528B4040378
:062892007F04227F0022FA
:0D2AFE00E4F5C7F5C5F5C675C380F5C42223
:10299600C2AF75C78175C5018FC48EC375C65A751A
:0A29A600C6A500AFC2122AFED2AF90
:0129B0002204
:102A0200C2AF75C78175C5028FC48EC38DC275C62C
:0A2A12005A75C6A500D2AF022AFED5
:102A900075C78175C5038FC48EC375C65A75C6A523
:042AA00000022AFE08
:102A65007F647E00122996EF1217667F65122996FC
:072A7500900001EF02177849
:1029B1007F0A7E00122A90121720FD7F64122A02DC
:0B29C100900001121739FD0F022A02DE
:102672008B2C8A2D892E7F587E02122996EF645A5E
:10268200602F7F0A7E00122A907F587E02122A90C3
:102692007D5A122A02AB2CAA2DA92E740A12176691
:1026A200AB2CAA2DA92E90000174031217781229BF
:0A26B200B1AB2CAA2DA92E022A6557
:0325AD00017201B7
:032B4C0000002264
:0A2B0B0000007F0C7EA8DEFEDFFC58
:012B1500229D
:0B29CC007E001229D7C2A07F057E000C
:1029D700EF1FAC0670011E4C6005122B4C80F122D4
:042A35007F027E009E
:102A3900AD07AC06ED1DAE0470011C4E6005122BEE
:042A49000B80F122EB
:102A1C00E572B40109D2A01229D3D2A18007D2A2A7
:092A2C001229D3D2A31229D322EE
:1028E100E572B4010FD2A1D2A01229D3C2A112293B
:1028F100D3C2A022D2A3D2A21229D3C2A31229D316
:03290100C2A2224D
:10290400E572B4010DC2A0C2A11229D3D2A0D2A1F2
:10291400800BC2A2C2A31229D3D2A2D2A31229D35A
:012924002290
:0826F9001228E17FA41224C3A2
:10270100E572B40117D2A0122A3530A10BE535C309
:1027110094FA5004053580F2C2A08015D2A2122A83
:102721003530A30BE535C394FA5004053580F2C268
:04273100A2122A3591
:012735002281
:0224C300AB0765
:1024C500E57264017026FD1229D1EB30E704D2A133
:1024D5008002C2A11229D3D2A0EB25E0FB7F0A120C
:1024E50029CC0DBD08E1D2A1D2A0802EE4FDC2A267
:1024F5001229D3EB30E704D2A38002C2A31229D359
:10250500D2A2EB25E0FB7F0A7E001229D7C2A212D8
:0D25150029D30DBD08D8D2A3D2A21229D31C
:012522002296
:10262300E4FBE57264017020D2A1FD1229D1D2A08E
:102633001229D3EB25E0FBA2A1E43342037F051269
:1026430029CC0DBD08E58024D2A3E4FDC2A2122942
:10265300D3D2A21229D3EB25E0FBA2A3E433420396
:0E2663001229D3C2A21229D30DBD08E0AF0385
:012671002246
:032B4F00022A1C3B
:10282400AA05A9071226F9AF011224C31227017FB2
:102834001E7E001229D7AF021224C31227011229C7
:08284400047F0A7E00022A391C
:0227D100AA0755
:1027D3001226F9AF021224C31227017F1E7E0012B4
:1027E30029D71228E17FA51224C312270112262319
:0727F300AD07122904AF0538
:0127FA0022BC
:02273600A907F1
:10273800E4F533F534E970057572018006B90123B3
:102748007572027F041227D17533008F34E5347512
:102758003400F5337F051227D1EF2534F534E435FD
:0727680033F533AE33AF344B
:01276F002247
:1027FB00D3EF9DEE9C400A8E838F82AA04AB05809B
:10280B00088C838D82AA06AB07C3E5829BFFE58309
:08281B009AFE4F7003FE7F01DD
:012823002292
:1025B000015D00015800016000015C00015700014D
:0B25C0005B00015A00015F00015900A0
:102A4D00538E7F5389F0758AB0758C3CC28DE4F539
:082A5D005DD2A9D2AFD28C2298
:03000B0002277059
:10277000C0E0C0D0055DE55D64647025F55DE55B96
:102780007003755B01E557B40102055CE559B401BE
:1027900002055FE560C39405500405608003755829
:0627A00001D0D0D0E032B0
:1021A5000000000000FF18660102020300FF1BA4E7
:1021B5000201010400FF00090303030001FF1CA73E
:1021C5000404040002FF1D9A000000000000000046
:1021D50000000000000000000000000000000000FA
:1021E50000000000000000000000000000000000EA
:1021F50000000000000000000000000000000000DA
:1022050000000000000000000000000000000000C9
:1022150000000000000000000000000000000000B9
:1022250000000000000000000000000000000000A9
:102235000000000000000000000000000000000099
:1023EE0050726573733A0044697374616E3A0049B2
:1023FE0032433A004144433A00312E5365745072D1
:10240E006573734C696D697400322E53657444693B
:10241E007374616E4C696D697400656E74657200DB
:10242E006573630053657474696E670050726573EB
:10243E00737572653A006F6B0053617665204F4B72
:0C244E00210044697374616E63653A00FC
:0725CB00026E0000016D002B
:082B31007F0C7EA8DEFEDFFC34
:012B39002279
:1029E7007F327E007DA87C00ED1D70011C144C70A9
:0A29F700F7EF1F70011E144E70EE82
:012A010022B2
:102AA400AD07AC06ED1DAE0470011C4E6005122B83
:042AB4003180F1225A
:102AB800E4FF122872BF0109756301E4F5627F0122
:032AC800227F006A
:012ACB0022E8
:10186600E4FF1228987BFF7A2379EEE4FDFCFF1251
:10187600236D7BFF7A2379F57D027C00E4FF12233A
:101886006D7BFF7A2379FD7D047C00E4FF12236DD6
:101896007BFF7A2479027D067C00E4FF12236D7BB0
:1018A600007A007970122A65E570FB7A00753701B7
:1018B600E4FD7F28122245E571FB7A00E4F5377DC9
:1018C600027F28021A17122AB8EF6003021A1DE4D3
:1018D600FF1227368E2D8F2E7F011227368E2F8FE1
:1018E60030AD30AC2FAF2EAE2D1227FB8E318F329E
:1018F600D3E5329571E5319400402FE4FF12294378
:10190600D3EF940AEE940040217F01122943D3EFCE
:10191600940AEE94004013755701E55CD3940A408F
:101926000EC2B01229E7D2B08000E4F557F55CE5A7
:101936005B640160030219F0056FE56F7002056EC6
:10194600E4FF1229438F5E7F011229438F61E55E12
:10195600FB7A00E4F5377D067F1E122245E561FB22
:101966007A00E4F5377D067F50122245AF5E7E0091
:10197600AD617C001227FB8E6B8F6C753701AB6CEB
:10198600AA6BE4FD7F50122245E55EC3940A501807
:10199600E561C3940A5011056DE56D9406400CE4AB
:1019A600F56EF56FF56D8003E4F56DD3E56C957016
:1019B600E56B94004013755901E55FD39403400E1F
:1019C600C2B01229E7D2B08000E4F55FF559D3E53D
:1019D6006F94C0E56E9412400EC2B01229E7D2B0E1
:1019E600E4F56EF56FF56DE4F55BE4F537AB32AA19
:1019F600317D027F50122245E4F537AB2EAA2D7DAC
:101A0600047F1E122245E4F537AB30AA2F7D047FF2
:071A1600501222450218CC1A
:011A1D0022A6
:101BA400E4F52D752E01FF1228987BFF7A2479071E
:101BB400E4FDFCFF1220FF7BFF7A2479177D027C71
:101BC40000E4FF12236D7BFF7A2479287D067C00D4
:101BD400E4FF12236D7BFF7A24792E7D067C007F3F
:101BE4006412236D1228728F2DE52D640270447FD8
:101BF4000112245A7BFF7A247907E4FDFCFF1223A7
:101C04006D7BFF7A2479177D027C00E4FF1220FFAC
:101C14007BFF7A2479287D067C00E4FF12236D7B08
:101C2400FF7A24792E7D067C007F6412236D752E45
:101C34000280B1E52D640370457F0212245A7BFFB4
:101C44007A247907E4FDFCFF1220FF7BFF7A2479D4
:101C5400177D027C00E4FF12236D7BFF7A24792830
:101C64007D067C00E4FF12236D7BFF7A24792E7DB0
:101C7400067C007F6412236D752E01021BE8E52D9E
:101C8400B40406E4F563F56222E52D640160030201
:101C94001BE8E52EB401057563038003756304E452
:021CA400F562E7
:011CA600221B
:0100090022D4
:101CA700E4F52DFF1228987BFF7A247932E4FDFCB6
:101CB7007F2812236D7BFF7A24793A7D027C00E42A
:101CC700FF12236D7B007A007970122A6580571204
:101CD70028728F2DE52D6402702474052570F57028
:101CE700D39446400375700A7F0212245A7BFF7A09
:101CF70024793A7D027C00E4FF12236D8028E52DCC
:101D07006403705274FB2570F570C3940A50037511
:101D170070467F0212245A7BFF7A24793A7D027C2F
:101D270000E4FF12236DE570FB7A007537017D0231
:101D37007F501222457BFF7A2479447D067C00E49C
:101D4700FF12236D7BFF7A24792E7D067C007F644A
:101D570012236D021CD6E52DB40407756301E4F563
:101D67006222E52D64016003021CD6FB7A007970BC
:101D77001229B1E4FF1228987BFF7A247947E4FD02
:101D8700FC7F2812236D7FF47E01122AA4E4F563F9
:021D9700F562F3
:011D99002227
:101D9A00E4F52DFF1228987BFF7A247932E4FDFCC2
:101DAA007F2812236D7BFF7A2479507D027C00E420
:101DBA00FF12236D7B007A007970122A6580531214
:101DCA0028728F2DE52D640270220571E571D39476
:101DDA000C40037571037F0212245A7BFF7A24791F
:101DEA00507D027C00E4FF12236D8026E52D6403FA
:101DFA0070501571E571C39401500375710C7F021F
:101E0A0012245A7BFF7A2479507D027C00E4FF1267
:101E1A00236DE571FB7A00E4F5377D027F501222CB
:101E2A00457BFF7A2479447D067C00E4FF12236D0A
:101E3A007BFF7A24792E7D067C007F6412236D0253
:101E4A001DC9E52DB40407756301E4F56222E52D89
:101E5A0064016003021DC9FB7A0079701229B1E49A
:101E6A00FF1228987BFF7A247947E4FDFC7F281229
:0E1E7A00236D7FF47E01122AA4E4F563F56265
:011E88002237
:10145C0002170BE86480F8E933E83360110460F09C
:10146C00ED33EC337009E8FCE9FDEAFEEBFF2204F6
:10147C0060DED3EB9FEA9EE99DE8C2E78CF0C2F7F1
:10148C0095F0400CE8CCF8E9CDF9EACEFAEBCFFBBD
:10149C001216D685D0F05804700320D5B3E804702A
:1014AC00075002B2D502171592D5EC0460F7E4CCC4
:1014BC00C0E0C398F8603B94186008400DD0E0FB86
:1014CC000216EDE4FBFAC9FC8028E830E406E4C916
:1014DC00FBE4CAFCE830E305E4C9CACBFCE85407DA
:1014EC006010F8C3E913F9EA13FAEB13FBEC13FCE5
:1014FC00D8F130F52FC3E49CFCEF9BFFEE9AFEED88
:10150C0099FDD0E0FBEF4E4D4C701222DB0302171D
:10151C0012EC2CFCEF33FFEE33FEED33FDED30E738
:10152C00EB0216EDEF2BFFEE3AFEED39FDD0E0FBB2
:10153C0050130BBB0003021715ED13FDEE13FEEF5A
:08154C0013FFEC13FC0216ED85
:10155400021715EC5D046005E85904700302170BCB
:101564001216D6580460F6EC4860F2EC7004FDFEE6
:10157400FF22C860DB2481C85009C398600250066A
:101584000217129850CAF582E9294B4A7005AB82BA
:1015940002170175F0007C1A7880C3EF9BEE9AED78
:1015A40099400DC3EF9BFFEE9AFEED99FDE842F0E2
:1015B400DC23ACF0D0E0FFD0E0FED0E0FDAB822035
:1015C400E7101BEB60BAEC2CFCEF33FFEE33FEEDBF
:1015D40033FD0216EDE803F830E705C0F075F000BE
:1015E400EF2FFFEE33FEED33FD40B830E7C280AAA3
:1015F40074F8CC6480CCC86480C8F582046043C3AA
:10160400EB9FF5F0EA9E42F0E99D42F0E89C45F03C
:1016140060305018E5825FFFE582F42B5582FB5061
:10162400210ABA001D09B90019088016E5825BFB7E
:10163400E582F42F5582FF50090EBE00050DBD0052
:10164400010CC3EB9FF5F0EA9E42F0E99D42F0E8FD
:0D1654009C45F06007CC4820E701B3EC2274
:1016610075F020800E75F010800575F0087D007E04
:10167100007F003392D530D503121852EC3340105D
:10168100EF33FFEE33FEED33FDEC33FCD5F0ED220D
:0E169100E5F0247EA2D513CC92E7CDCEFF2249
:10169F00EDD2E7CD33EC3392D524814006E4FFFE43
:1016AF00FDFC22FCE4CFCECDCC24E0501174FF80A2
:1016BF00EDC3CC13CCCD13CDCE13CECF13CF04703F
:0716CF00F030D5DE021852D5
:1016D600E9D2E7C933E833F892D5EDD2E7CD33EC5A
:0716E60033FC5002B2D522D3
:1016ED00EC30E7100FBF000C0EBE00080DBD00045E
:1016FD000BEB6014A2D5EB13FCED92E7FD2274FF0A
:10170D00FCFDFEFF22E480F8A2D574FF13FC7D8062
:03171D00E480EF76
:030000000222DBFE
:0C22DB00787FE4F6D8FD758172022322A2
:10172000BB010689828A83E0225002E722BBFE02C7
:09173000E32289828A83E49322FA
:10173900BB010CE58229F582E5833AF583E0225065
:1017490006E92582F8E622BBFE06E92582F8E222AF
:0D175900E58229F582E5833AF583E49322C9
:10176600BB010689828A83F0225002F722BBFE0162
:02177600F3225C
:10177800F8BB010DE58229F582E5833AF583E8F0A7
:10178800225006E92582C8F622BBFE05E92582C853
:02179800F2223B
:10179A00BC000BBE0029EF8DF084FFADF022E4CC33
:1017AA00F875F008EF2FFFEE33FEEC33FCEE9DECFC
:1017BA00984005FCEE9DFE0FD5F0E9E4CEFD22ED42
:1017CA00F8F5F0EE8420D21CFEADF075F008EF2F8C
:1017DA00FFED33FD4007985006D5F0F222C398FD7D
:0517EA000FD5F0EA221A
:1017EF00BB010A89828A83E0F5F0A3E022500687C5
:1017FF00F009E71922BBFE07E3F5F009E319228987
:0B180F00828A83E493F5F074019322B9
:10181A00BB0110E58229F582E5833AF583E0F5F00C
:10182A00A3E0225009E92582F886F008E622BBFEE9
:10183A000AE92582F8E2F5F008E222E5832AF5832F
:08184A00E993F5F0A3E99322F4
:0E185200C3E49FFFE49EFEE49DFDE49CFC22A7
:061860008A838982E47313
:1022E7000228BDE493A3F8E493A34003F68001F228
:1022F70008DFF48029E493A3F85407240CC8C333F8
:10230700C4540F4420C8834004F456800146F6DFC6
:10231700E4800B010204081020408090257CE47EB5
:10232700019360BCA3FF543F30E509541FFEE493BB
:10233700A360010ECF54C025E060A840B8E493A382
:10234700FAE493A3F8E493A3C8C582C8CAC583CAAD
:10235700F0A3C8C582C8CAC583CADFE9DEE780BE65
:0125D2000008
:00000001FF
