:0605010075BE27D2C622E0
:1000F500D2C5C2C330C3FDE5BD64086003750901FF
:1001050075BCA4C2C5C2C330C3FDE5BD6418600398
:100115007509018FBCC2C330C3FDE5BD642860030A
:10012500750901D2C5C2C330C3FDE5BD64106003C6
:10013500750901C2C575BCA5C2C330C3FDE5BD6463
:10014500406003750901D2C2C2C330C3FDE5BD6479
:10015500506003750901AFBC751B008F1CE51C754C
:100165001C00F51BD2C2C2C330C3FDE5BD6450609F
:1001750003750901AFBCEF251CF51CE4351BF51B08
:10018500C2C2C2C330C3FDE5BD6458600375090131
:08019500C2C3D2C420C4FD2244
:10019D00D2C5C2C330C3FDE5BD6408600375090156
:1001AD00C2C575BCA4C2C330C3FDE5BD64186003F0
:1001BD007509018FBCC2C330C3FDE5BD6428600362
:1001CD007509018DBCC2C330C3FDE5BD6428600354
:1001DD00750901D2C4C2C320C4FDD2C5C2C330C388
:1001ED00FDE5BD64086003750901C2C575BCA4C2F7
:1001FD00C330C3FDE5BDB418DAD2C4C2C320C4FDFB
:01020D0022CE
:10020E00E4F5B1F5B1F5B3F5B4F5ACF5ADFF7EC2DD
:10021E007D01FC120276120501E4FD7F0912019D9B
:10022E007FE87E037C001203D9E4FF1200F5D3E5CC
:10023E001C9400E51B94004009E509700500F51BB0
:10024E00F51C7F041200F5D3E51C9400E51B940009
:10025E004009E509700500F51BF51C7F647E007DE5
:08026E00007C001203D980C1DD
:10046F0053B1BF53B2BF53B17F53B27F759852434D
:10047F008920438780438E1053C4DFAB07AA06A998
:10048F0005A8047F407E427D0F7C0012003FEF04E1
:07049F00F404F58DD28E225A
:100276008F348E338D328C3153B1BF53B2BF53B1ED
:100286007F53B27F75985243878053C4F843C42086
:10029600AB34AA33A932A8317F407E427D0F7C0061
:1002A60012003FC374FF9FFF74FF9EFEE49DFDE4B2
:1002B6009CFC78081200E28FC6AB34AA33A932A898
:1002C600317F407E427D0F7C0012003FC374FF9F4A
:0702D600FF8FC543C408229D
:0704E1003098FDAF99C298AD
:0104E80022F1
:0804E900C2998F993099FD22A0
:1002DD008F248E238D228C2153B1FB53B2FB53B34C
:1002ED00BF53B4BF75F85253C4F8AB24AA23A92247
:1002FD00A8217F407E427D0F7C0012003FC374FF1A
:10030D009FFF74FF9EFEE49DFDE49CFC78081200A7
:10031D00E28FC6AB24AA23A922A8217F407E427D6D
:10032D000F7C0012003FC374FF9FFF8FC543C408AD
:01033D00229D
:0704F10030F8FDAF9AC2F8DC
:0104F80022E1
:0804F900C2F98F9A30F9FD22CF
:1004A600538EF7438901D28CEF4E6012758AF3752D
:1004B6008CFF308DFDC28DEF1F70ED1E80EAC28C61
:0104C6002213
:1003D9008F348E338D328C31538EF7438901D28C11
:1003E900E4FFFEFDFCAB34AA33A932A831C31200E5
:1003F900D16025758ACA758CFA308DFDC28DE534B8
:1004090024FFF534E53334FFF533E53234FFF532B3
:0B041900E53134FFF53180C8C28C22B1
:100424008F288E278D268C25538EEF438910D28EEC
:10043400E4FFFEFDFCAB28AA27A926A825C31200C9
:10044400D16025758BCA758DFA308FFDC28FE52872
:1004540024FFF528E52734FFF527E52634FFF526A4
:0B046400E52534FFF52580C8C28E227C
:10033E008F2C8E2B8D2A8C2953C9BF53C9DF43C9ED
:10034E0010D2CAE4FFFEFDFCAB2CAA2BA92AA829C9
:10035E00C31200D1602575CC6075CDF030CFFDC2D3
:10036E00CFE52C24FFF52CE52B34FFF52BE52A34B5
:0E037E00FFF52AE52934FFF52980C8C2CA22FE
:10038C008F308E2F8D2E8C2D75C40243C408E4FF44
:10039C00FEFDFCAB30AA2FA92EA82DC31200D160F4
:1003AC002875C56075C6F0E5C430E4FB53C4EFE5B1
:1003BC003024FFF530E52F34FFF52FE52E34FFF513
:0D03CC002EE52D34FFF52D80C553C4F7221A
:030000000204C730
:1004C700787FE4F6D8FD9000007FFF7E03E4F0A379
:0A04D700DFFCDEFA75813402020E2C
:1000030075F008758200EF2FFFEE33FECD33CDCCB4
:1000130033CCC58233C5829BED9AEC99E582984037
:100023000CF582EE9BFEED9AFDEC99FC0FD5F0D614
:10003300E4CEFBE4CDFAE4CCF9A88222B800C1B93E
:100043000059BA002DEC8BF084CFCECDFCE5F0CB7C
:10005300F97818EF2FFFEE33FEED33FDEC33FCEBB5
:1000630033FB10D703994004EB99FB0FD8E5E4F970
:10007300FA227818EF2FFFEE33FEED33FDEC33FC5D
:10008300C933C910D7059BE99A4007EC9BFCE99A51
:10009300F90FD8E0E4C9FAE4CCFB2275F010EF2F96
:1000A300FFEE33FEED33FDCC33CCC833C810D70796
:1000B3009BEC9AE899400AED9BFDEC9AFCE899F8D1
:0E00C3000FD5F0DAE4CDFBE4CCFAE4C8F92264
:1000D100EB9FF5F0EA9E42F0E99D42F0E89C45F085
:0100E10022FC
:1000E200E8600FECC313FCED13FDEE13FEEF13FFFC
:0300F200D8F12220
:00000001FF
