:06043E0075BE02D2C622C9
:1000F500D2C5C2C330C3FDE5BD640860028060752A
:10010500BCA4C2C5C2C330C3FDE5BD64186002808E
:100115004E8FBCC2C330C3FDE5BD64286002803F7D
:10012500D2C5C2C330C3FDE5BD641060028030C2D4
:10013500C575BCA5C2C330C3FDE5BD644060028082
:100145001ED2C2C2C330C3FDE5BD64506002800F3C
:10015500AFBCC2C2C2C330C3FDE5BD645860057EF5
:0D016500787F0022C2C3D2C420C4FD7E00FA
:01017200226A
:10036C00E4F5B1F5B1F5B3F5B4F5ACF5ADFF7EC27E
:10037C007D01FC12017312043EE4FF1200F5EF75CF
:10038C001B00F51AE4FF1200F5EF251BF51BEE35EB
:10039C001AF51A7F647E007D007C001202D680D98B
:1003AC0053B1BF53B2BF53B17F53B27F7598524311
:1003BC008920438780438E1053C4DFAB07AA06A95C
:1003CC0005A8047F407E427D0F7C0012003FEF04A5
:0703DC00F404F58DD28E221E
:100173008F348E338D328C3153B1BF53B2BF53B1F1
:100183007F53B27F75985243878053C4F843C4208A
:10019300AB34AA33A932A8317F407E427D0F7C0065
:1001A30012003FC374FF9FFF74FF9EFEE49DFDE4B6
:1001B3009CFC78081200E28FC6AB34AA33A932A89C
:1001C300317F407E427D0F7C0012003FC374FF9F4E
:0701D300FF8FC543C40822A1
:07041E003098FDAF99C29870
:0104250022B4
:08042600C2998F993099FD2263
:1001DA008F248E238D228C2153B1FB53B2FB53B350
:1001EA00BF53B4BF75F85253C4F8AB24AA23A9224B
:1001FA00A8217F407E427D0F7C0012003FC374FF1E
:10020A009FFF74FF9EFEE49DFDE49CFC78081200AB
:10021A00E28FC6AB24AA23A922A8217F407E427D71
:10022A000F7C0012003FC374FF9FFF8FC543C408B1
:01023A0022A1
:07042E0030F8FDAF9AC2F89F
:0104350022A4
:08043600C2F98F9A30F9FD2292
:1003E300538EF7438901D28CEF4E6012758AF375F1
:1003F3008CFF308DFDC28DEF1F70ED1E80EAC28C25
:0104030022D6
:1002D6008F348E338D328C31538EF7438901D28C15
:1002E600E4FFFEFDFCAB34AA33A932A831C31200E9
:1002F600D16025758ACA758CFA308DFDC28DE534BC
:1003060024FFF534E53334FFF533E53234FFF532B7
:0B031600E53134FFF53180C8C28C22B5
:100321008F288E278D268C25538EEF438910D28EF0
:10033100E4FFFEFDFCAB28AA27A926A825C31200CD
:10034100D16025758BCA758DFA308FFDC28FE52876
:1003510024FFF528E52734FFF527E52634FFF526A8
:0B036100E52534FFF52580C8C28E2280
:10023B008F2C8E2B8D2A8C2953C9BF53C9DF43C9F1
:10024B0010D2CAE4FFFEFDFCAB2CAA2BA92AA829CD
:10025B00C31200D1602575CC6075CDF030CFFDC2D7
:10026B00CFE52C24FFF52CE52B34FFF52BE52A34B9
:0E027B00FFF52AE52934FFF52980C8C2CA2202
:100289008F308E2F8D2E8C2D75C40243C408E4FF48
:10029900FEFDFCAB30AA2FA92EA82DC31200D160F8
:1002A9002875C56075C6F0E5C430E4FB53C4EFE5B5
:1002B9003024FFF530E52F34FFF52FE52E34FFF517
:0D02C9002EE52D34FFF52D80C553C4F7221E
:03000000020404F3
:10040400787FE4F6D8FD9000007FFF7E03E4F0A33C
:0A041400DFFCDEFA75813402036C90
:1000030075F008758200EF2FFFEE33FECD33CDCCB4
:1000130033CCC58233C5829BED9AEC99E582984037
:100023000CF582EE9BFEED9AFDEC99FC0FD5F0D614
:10003300E4CEFBE4CDFAE4CCF9A88222B800C1B93E
:100043000059BA002DEC8BF084CFCECDFCE5F0CB7C
:10005300F97818EF2FFFEE33FEED33FDEC33FCEBB5
:1000630033FB10D703994004EB99FB0FD8E5E4F970
:10007300FA227818EF2FFFEE33FEED33FDEC33FC5D
:10008300C933C910D7059BE99A4007EC9BFCE99A51
:10009300F90FD8E0E4C9FAE4CCFB2275F010EF2F96
:1000A300FFEE33FEED33FDCC33CCC833C810D70796
:1000B3009BEC9AE899400AED9BFDEC9AFCE899F8D1
:0E00C3000FD5F0DAE4CDFBE4CCFAE4C8F92264
:1000D100EB9FF5F0EA9E42F0E99D42F0E89C45F085
:0100E10022FC
:1000E200E8600FECC313FCED13FDEE13FEEF13FFFC
:0300F200D8F12220
:00000001FF
