:0300230002028D49
:10028D00C0E0C0D075D000C000C00730985BC298E8
:10029D00E5087052AF1E051E740C2FF8A699E51EC9
:1002AD00D394024035E51FB40119740A251EF8E6F2
:1002BD00646F7035740B251EF8E6646B702B751F1B
:1002CD00028026740B251EF8E6B46D1D740A251EDA
:1002DD00F8E6B46D14750801800FE51EC394104047
:1002ED0008751E00800385990B309902C299D007BD
:0702FD00D000D0D0D0E032A8
:1000260053B1BF53B2BF53B17F53B27F7F807E259A
:100036007D007C00120304D2ACD2AF7F7312055D43
:100046007F3512055D7F2D12055D7F3112055D7FBF
:100056002312055D7F0A7E007D007C001204677511
:100066001F01E51F640160FAE4F51F7FE87E03FDCA
:10007600FC120467E4F51E7F7212055D7F361205D9
:100086005D7F2312055D750927750A10E508700D59
:10009600E50A150AAE09700215094E70EFE508600B
:1000A600D6E4FBEBC3951E4003020181740C2BF8CA
:1000B600E6646D600302017D740D2BF8E6646D60E5
:1000C6000302017DEBD39400401B740B2BF8E6FF73
:1000D600C394304010EFD39439500AEF24D0F51D65
:1000E600E434FFF51CEBD39401402A740A2BF8E69E
:1000F600FFC39430401FEFD394395019EF24D0FF3B
:10010600E434FFFE7C007D0A120189EF251DF51DF2
:10011600EE351CF51CEBD39402402A74092BF8E645
:10012600FFC39430401FEFD394395019EF24D0FF0A
:10013600E434FFFE7C007D64120189EF251DF51D68
:10014600EE351CF51CEBD39403403074082BF8E60F
:10015600FFC394304025EFD39439501FEF24D0FFCE
:10016600E434FFFE7C037DE8120189EF251DF51DB1
:10017600EE351CF51C80040B0200A9E4F508F51EFB
:0301860002007DF7
:1004FD0053B1BF53B2BF53B17F53B27F75985243BF
:10050D008920438780438E1053C4DFAB07AA06A909
:10051D0005A8047F407E427D0F7C001201D7EF04B9
:07052D00F404F58DD28E22CB
:100304008F348E338D328C3153B1BF53B2BF53B15E
:100314007F53B27F75985243878053C4F843C420F7
:10032400AB34AA33A932A8317F407E427D0F7C00D2
:100334001201D7C374FF9FFF74FF9EFEE49DFDE48A
:100344009CFC780812027A8FC6AB34AA33A932A86F
:10035400317F407E427D0F7C001201D7C374FF9F22
:07036400FF8FC543C408220E
:070555003098FDAF99C29838
:01055C00227C
:08055D00C2998F993099FD222B
:10036B008F248E238D228C2153B1FB53B2FB53B3BD
:10037B00BF53B4BF75F85253C4F8AB24AA23A922B8
:10038B00A8217F407E427D0F7C001201D7C374FFF2
:10039B009FFF74FF9EFEE49DFDE49CFC7808120217
:1003AB007A8FC6AB24AA23A922A8217F407E427D47
:1003BB000F7C001201D7C374FF9FFF8FC543C40886
:0103CB00220F
:0705650030F8FDAF9AC2F867
:01056C00226C
:08056D00C2F98F9A30F9FD225A
:10053400538EF7438901D28CEF4E6012758AF3759E
:100544008CFF308DFDC28DEF1F70ED1E80EAC28CD2
:010554002284
:100467008F348E338D328C31538EF7438901D28C82
:10047700E4FFFEFDFCAB34AA33A932A831C3120254
:10048700696025758ACA758CFA308DFDC28DE53491
:1004970024FFF534E53334FFF533E53234FFF53225
:0B04A700E53134FFF53180C8C28C2223
:1004B2008F288E278D268C25538EEF438910D28E5E
:1004C200E4FFFEFDFCAB28AA27A926A825C3120239
:1004D200696025758BCA758DFA308FFDC28FE5284C
:1004E20024FFF528E52734FFF527E52634FFF52616
:0B04F200E52534FFF52580C8C28E22EE
:1003CC008F2C8E2B8D2A8C2953C9BF53C9DF43C95F
:1003DC0010D2CAE4FFFEFDFCAB2CAA2BA92AA8293B
:1003EC00C3120269602575CC6075CDF030CFFDC2AB
:1003FC00CFE52C24FFF52CE52B34FFF52BE52A3427
:0E040C00FFF52AE52934FFF52980C8C2CA226F
:10041A008F308E2F8D2E8C2D75C40243C408E4FFB5
:10042A00FEFDFCAB30AA2FA92EA82DC312026960CB
:10043A002875C56075C6F0E5C430E4FB53C4EFE522
:10044A003024FFF530E52F34FFF52FE52E34FFF584
:0D045A002EE52D34FFF52D80C553C4F7228B
:03000000020003F8
:10000300787FE4F6D8FD9000007FFF7E03E4F0A341
:0A001300DFFCDEFA758134020026DE
:10018900EF8DF0A4A8F0CF8CF0A428CE8DF0A42E8A
:02019900FE2244
:10019B0075F008758200EF2FFFEE33FECD33CDCC1B
:1001AB0033CCC58233C5829BED9AEC99E58298409E
:1001BB000CF582EE9BFEED9AFDEC99FC0FD5F0D67B
:1001CB00E4CEFBE4CDFAE4CCF9A88222B800C1B9A5
:1001DB000059BA002DEC8BF084CFCECDFCE5F0CBE3
:1001EB00F97818EF2FFFEE33FEED33FDEC33FCEB1C
:1001FB0033FB10D703994004EB99FB0FD8E5E4F9D7
:10020B00FA227818EF2FFFEE33FEED33FDEC33FCC3
:10021B00C933C910D7059BE99A4007EC9BFCE99AB7
:10022B00F90FD8E0E4C9FAE4CCFB2275F010EF2FFC
:10023B00FFEE33FEED33FDCC33CCC833C810D707FC
:10024B009BEC9AE899400AED9BFDEC9AFCE899F837
:0E025B000FD5F0DAE4CDFBE4CCFAE4C8F922CA
:10026900EB9FF5F0EA9E42F0E99D42F0E89C45F0EB
:010279002262
:10027A00E8600FECC313FCED13FDEE13FEEF13FF62
:03028A00D8F12286
:00000001FF
